{
  "transactions": [
    {
      "hash": "0xef0f71d508714d90feeeb975a35335a53c0def1594cafdb494a42b4489cd7a6b",
      "transactionType": "CREATE",
      "contractName": "MockERC20",
      "contractAddress": "0x164261128d96b4e3bb12d33f7ca2ee4ac77e1cbb",
      "function": null,
      "arguments": [
        "USD Coin",
        "USDC",
        "6"
      ],
      "transaction": {
        "from": "0x2080d5bf878e0df355a8105d011518b4eba15717",
        "gas": "0xaf769",
        "value": "0x0",
        "input": "0x608060405234801562000010575f80fd5b5060405162000a9d38038062000a9d83398101604081905262000033916200012b565b5f62000040848262000236565b5060016200004f838262000236565b506002805460ff191660ff9290921691909117905550620002fe9050565b634e487b7160e01b5f52604160045260245ffd5b5f82601f83011262000091575f80fd5b81516001600160401b0380821115620000ae57620000ae6200006d565b604051601f8301601f19908116603f01168101908282118183101715620000d957620000d96200006d565b81604052838152602092508683858801011115620000f5575f80fd5b5f91505b83821015620001185785820183015181830184015290820190620000f9565b5f93810190920192909252949350505050565b5f805f606084860312156200013e575f80fd5b83516001600160401b038082111562000155575f80fd5b620001638783880162000081565b9450602086015191508082111562000179575f80fd5b50620001888682870162000081565b925050604084015160ff811681146200019f575f80fd5b809150509250925092565b600181811c90821680620001bf57607f821691505b602082108103620001de57634e487b7160e01b5f52602260045260245ffd5b50919050565b601f82111562000231575f81815260208120601f850160051c810160208610156200020c5750805b601f850160051c820191505b818110156200022d5782815560010162000218565b5050505b505050565b81516001600160401b038111156200025257620002526200006d565b6200026a81620002638454620001aa565b84620001e4565b602080601f831160018114620002a0575f8415620002885750858301515b5f19600386901b1c1916600185901b1785556200022d565b5f85815260208120601f198616915b82811015620002d057888601518255948401946001909101908401620002af565b5085821015620002ee57878501515f19600388901b60f8161c191681555b5050505050600190811b01905550565b610791806200030c5f395ff3fe608060405234801561000f575f80fd5b506004361061009b575f3560e01c806340c10f191161006357806340c10f191461012957806370a082311461013e57806395d89b411461015d578063a9059cbb14610165578063dd62ed3e14610178575f80fd5b806306fdde031461009f578063095ea7b3146100bd57806318160ddd146100e057806323b872dd146100f7578063313ce5671461010a575b5f80fd5b6100a76101a2565b6040516100b491906105d1565b60405180910390f35b6100d06100cb366004610637565b61022d565b60405190151581526020016100b4565b6100e960035481565b6040519081526020016100b4565b6100d061010536600461065f565b610299565b6002546101179060ff1681565b60405160ff90911681526020016100b4565b61013c610137366004610637565b610465565b005b6100e961014c366004610698565b60046020525f908152604090205481565b6100a76104eb565b6100d0610173366004610637565b6104f8565b6100e96101863660046106b8565b600560209081525f928352604080842090915290825290205481565b5f80546101ae906106e9565b80601f01602080910402602001604051908101604052809291908181526020018280546101da906106e9565b80156102255780601f106101fc57610100808354040283529160200191610225565b820191905f5260205f20905b81548152906001019060200180831161020857829003601f168201915b505050505081565b335f8181526005602090815260408083206001600160a01b038716808552925280832085905551919290917f8c5be1e5ebec7d5bd14f71427d1e84f3dd0314c0f7b2291e5b200ac8c7c3b925906102879086815260200190565b60405180910390a35060015b92915050565b6001600160a01b0383165f908152600460205260408120548211156102f45760405162461bcd60e51b815260206004820152600c60248201526b125394d551919250d251539560a21b60448201526064015b60405180910390fd5b6001600160a01b0384165f9081526005602090815260408083203384529091529020545f19146103b4576001600160a01b0384165f90815260056020908152604080832033845290915290205482111561037c5760405162461bcd60e51b8152602060048201526009602482015268414c4c4f57414e434560b81b60448201526064016102eb565b6001600160a01b0384165f908152600560209081526040808320338452909152812080548492906103ae908490610735565b90915550505b6001600160a01b0384165f90815260046020526040812080548492906103db908490610735565b90915550506001600160a01b0383165f9081526004602052604081208054849290610407908490610748565b92505081905550826001600160a01b0316846001600160a01b03167fddf252ad1be2c89b69c2b068fc378daa952ba7f163c4a11628f55a4df523b3ef8460405161045391815260200190565b60405180910390a35060019392505050565b8060035f8282546104769190610748565b90915550506001600160a01b0382165f90815260046020526040812080548392906104a2908490610748565b90915550506040518181526001600160a01b038316905f907fddf252ad1be2c89b69c2b068fc378daa952ba7f163c4a11628f55a4df523b3ef9060200160405180910390a35050565b600180546101ae906106e9565b335f908152600460205260408120548211156105455760405162461bcd60e51b815260206004820152600c60248201526b125394d551919250d251539560a21b60448201526064016102eb565b335f9081526004602052604081208054849290610563908490610735565b90915550506001600160a01b0383165f908152600460205260408120805484929061058f908490610748565b90915550506040518281526001600160a01b0384169033907fddf252ad1be2c89b69c2b068fc378daa952ba7f163c4a11628f55a4df523b3ef90602001610287565b5f6020808352835180828501525f5b818110156105fc578581018301518582016040015282016105e0565b505f604082860101526040601f19601f8301168501019250505092915050565b80356001600160a01b0381168114610632575f80fd5b919050565b5f8060408385031215610648575f80fd5b6106518361061c565b946020939093013593505050565b5f805f60608486031215610671575f80fd5b61067a8461061c565b92506106886020850161061c565b9150604084013590509250925092565b5f602082840312156106a8575f80fd5b6106b18261061c565b9392505050565b5f80604083850312156106c9575f80fd5b6106d28361061c565b91506106e06020840161061c565b90509250929050565b600181811c908216806106fd57607f821691505b60208210810361071b57634e487b7160e01b5f52602260045260245ffd5b50919050565b634e487b7160e01b5f52601160045260245ffd5b8181038181111561029357610293610721565b808201808211156102935761029361072156fea2646970667358221220559c80c66424cb8a1c26013cd23d3e40ef29a4ec86c2fb4f67225592e01f40b164736f6c63430008140033000000000000000000000000000000000000000000000000000000000000006000000000000000000000000000000000000000000000000000000000000000a00000000000000000000000000000000000000000000000000000000000000006000000000000000000000000000000000000000000000000000000000000000855534420436f696e00000000000000000000000000000000000000000000000000000000000000000000000000000000000000000000000000000000000000045553444300000000000000000000000000000000000000000000000000000000",
        "nonce": "0x0",
        "chainId": "0x14a34"
      },
      "additionalContracts": [],
      "isFixedGasLimit": false
    },
    {
      "hash": "0xe393e093ae5e3022e2ddef53ad23e27ae91851ea46e53fa292f474b9744513d3",
      "transactionType": "CREATE",
      "contractName": "MockERC20",
      "contractAddress": "0xd34cbc03a93786be948f9dd0639cf0ffacd28341",
      "function": null,
      "arguments": [
        "Wrapped Ether",
        "WETH",
        "18"
      ],
      "transaction": {
        "from": "0x2080d5bf878e0df355a8105d011518b4eba15717",
        "gas": "0xaf7b7",
        "value": "0x0",
        "input": "0x608060405234801562000010575f80fd5b5060405162000a9d38038062000a9d83398101604081905262000033916200012b565b5f62000040848262000236565b5060016200004f838262000236565b506002805460ff191660ff9290921691909117905550620002fe9050565b634e487b7160e01b5f52604160045260245ffd5b5f82601f83011262000091575f80fd5b81516001600160401b0380821115620000ae57620000ae6200006d565b604051601f8301601f19908116603f01168101908282118183101715620000d957620000d96200006d565b81604052838152602092508683858801011115620000f5575f80fd5b5f91505b83821015620001185785820183015181830184015290820190620000f9565b5f93810190920192909252949350505050565b5f805f606084860312156200013e575f80fd5b83516001600160401b038082111562000155575f80fd5b620001638783880162000081565b9450602086015191508082111562000179575f80fd5b50620001888682870162000081565b925050604084015160ff811681146200019f575f80fd5b809150509250925092565b600181811c90821680620001bf57607f821691505b602082108103620001de57634e487b7160e01b5f52602260045260245ffd5b50919050565b601f82111562000231575f81815260208120601f850160051c810160208610156200020c5750805b601f850160051c820191505b818110156200022d5782815560010162000218565b5050505b505050565b81516001600160401b038111156200025257620002526200006d565b6200026a81620002638454620001aa565b84620001e4565b602080601f831160018114620002a0575f8415620002885750858301515b5f19600386901b1c1916600185901b1785556200022d565b5f85815260208120601f198616915b82811015620002d057888601518255948401946001909101908401620002af565b5085821015620002ee57878501515f19600388901b60f8161c191681555b5050505050600190811b01905550565b610791806200030c5f395ff3fe608060405234801561000f575f80fd5b506004361061009b575f3560e01c806340c10f191161006357806340c10f191461012957806370a082311461013e57806395d89b411461015d578063a9059cbb14610165578063dd62ed3e14610178575f80fd5b806306fdde031461009f578063095ea7b3146100bd57806318160ddd146100e057806323b872dd146100f7578063313ce5671461010a575b5f80fd5b6100a76101a2565b6040516100b491906105d1565b60405180910390f35b6100d06100cb366004610637565b61022d565b60405190151581526020016100b4565b6100e960035481565b6040519081526020016100b4565b6100d061010536600461065f565b610299565b6002546101179060ff1681565b60405160ff90911681526020016100b4565b61013c610137366004610637565b610465565b005b6100e961014c366004610698565b60046020525f908152604090205481565b6100a76104eb565b6100d0610173366004610637565b6104f8565b6100e96101863660046106b8565b600560209081525f928352604080842090915290825290205481565b5f80546101ae906106e9565b80601f01602080910402602001604051908101604052809291908181526020018280546101da906106e9565b80156102255780601f106101fc57610100808354040283529160200191610225565b820191905f5260205f20905b81548152906001019060200180831161020857829003601f168201915b505050505081565b335f8181526005602090815260408083206001600160a01b038716808552925280832085905551919290917f8c5be1e5ebec7d5bd14f71427d1e84f3dd0314c0f7b2291e5b200ac8c7c3b925906102879086815260200190565b60405180910390a35060015b92915050565b6001600160a01b0383165f908152600460205260408120548211156102f45760405162461bcd60e51b815260206004820152600c60248201526b125394d551919250d251539560a21b60448201526064015b60405180910390fd5b6001600160a01b0384165f9081526005602090815260408083203384529091529020545f19146103b4576001600160a01b0384165f90815260056020908152604080832033845290915290205482111561037c5760405162461bcd60e51b8152602060048201526009602482015268414c4c4f57414e434560b81b60448201526064016102eb565b6001600160a01b0384165f908152600560209081526040808320338452909152812080548492906103ae908490610735565b90915550505b6001600160a01b0384165f90815260046020526040812080548492906103db908490610735565b90915550506001600160a01b0383165f9081526004602052604081208054849290610407908490610748565b92505081905550826001600160a01b0316846001600160a01b03167fddf252ad1be2c89b69c2b068fc378daa952ba7f163c4a11628f55a4df523b3ef8460405161045391815260200190565b60405180910390a35060019392505050565b8060035f8282546104769190610748565b90915550506001600160a01b0382165f90815260046020526040812080548392906104a2908490610748565b90915550506040518181526001600160a01b038316905f907fddf252ad1be2c89b69c2b068fc378daa952ba7f163c4a11628f55a4df523b3ef9060200160405180910390a35050565b600180546101ae906106e9565b335f908152600460205260408120548211156105455760405162461bcd60e51b815260206004820152600c60248201526b125394d551919250d251539560a21b60448201526064016102eb565b335f9081526004602052604081208054849290610563908490610735565b90915550506001600160a01b0383165f908152600460205260408120805484929061058f908490610748565b90915550506040518281526001600160a01b0384169033907fddf252ad1be2c89b69c2b068fc378daa952ba7f163c4a11628f55a4df523b3ef90602001610287565b5f6020808352835180828501525f5b818110156105fc578581018301518582016040015282016105e0565b505f604082860101526040601f19601f8301168501019250505092915050565b80356001600160a01b0381168114610632575f80fd5b919050565b5f8060408385031215610648575f80fd5b6106518361061c565b946020939093013593505050565b5f805f60608486031215610671575f80fd5b61067a8461061c565b92506106886020850161061c565b9150604084013590509250925092565b5f602082840312156106a8575f80fd5b6106b18261061c565b9392505050565b5f80604083850312156106c9575f80fd5b6106d28361061c565b91506106e06020840161061c565b90509250929050565b600181811c908216806106fd57607f821691505b60208210810361071b57634e487b7160e01b5f52602260045260245ffd5b50919050565b634e487b7160e01b5f52601160045260245ffd5b8181038181111561029357610293610721565b808201808211156102935761029361072156fea2646970667358221220559c80c66424cb8a1c26013cd23d3e40ef29a4ec86c2fb4f67225592e01f40b164736f6c63430008140033000000000000000000000000000000000000000000000000000000000000006000000000000000000000000000000000000000000000000000000000000000a00000000000000000000000000000000000000000000000000000000000000012000000000000000000000000000000000000000000000000000000000000000d577261707065642045746865720000000000000000000000000000000000000000000000000000000000000000000000000000000000000000000000000000045745544800000000000000000000000000000000000000000000000000000000",
        "nonce": "0x1",
        "chainId": "0x14a34"
      },
      "additionalContracts": [],
      "isFixedGasLimit": false
    },
    {
      "hash": "0xd07508bbff13db4640218058cfead2c588da7027a88bd5883ecaf8f2c8c82629",
      "transactionType": "CREATE",
      "contractName": "MockERC20",
      "contractAddress": "0xc334d87ea6b2337364b77d5333bb8745d308ce22",
      "function": null,
      "arguments": [
        "Praxion Stake",
        "pxSTK",
        "18"
      ],
      "transaction": {
        "from": "0x2080d5bf878e0df355a8105d011518b4eba15717",
        "gas": "0xaf7c6",
        "value": "0x0",
        "input": "0x608060405234801562000010575f80fd5b5060405162000a9d38038062000a9d83398101604081905262000033916200012b565b5f62000040848262000236565b5060016200004f838262000236565b506002805460ff191660ff9290921691909117905550620002fe9050565b634e487b7160e01b5f52604160045260245ffd5b5f82601f83011262000091575f80fd5b81516001600160401b0380821115620000ae57620000ae6200006d565b604051601f8301601f19908116603f01168101908282118183101715620000d957620000d96200006d565b81604052838152602092508683858801011115620000f5575f80fd5b5f91505b83821015620001185785820183015181830184015290820190620000f9565b5f93810190920192909252949350505050565b5f805f606084860312156200013e575f80fd5b83516001600160401b038082111562000155575f80fd5b620001638783880162000081565b9450602086015191508082111562000179575f80fd5b50620001888682870162000081565b925050604084015160ff811681146200019f575f80fd5b809150509250925092565b600181811c90821680620001bf57607f821691505b602082108103620001de57634e487b7160e01b5f52602260045260245ffd5b50919050565b601f82111562000231575f81815260208120601f850160051c810160208610156200020c5750805b601f850160051c820191505b818110156200022d5782815560010162000218565b5050505b505050565b81516001600160401b038111156200025257620002526200006d565b6200026a81620002638454620001aa565b84620001e4565b602080601f831160018114620002a0575f8415620002885750858301515b5f19600386901b1c1916600185901b1785556200022d565b5f85815260208120601f198616915b82811015620002d057888601518255948401946001909101908401620002af565b5085821015620002ee57878501515f19600388901b60f8161c191681555b5050505050600190811b01905550565b610791806200030c5f395ff3fe608060405234801561000f575f80fd5b506004361061009b575f3560e01c806340c10f191161006357806340c10f191461012957806370a082311461013e57806395d89b411461015d578063a9059cbb14610165578063dd62ed3e14610178575f80fd5b806306fdde031461009f578063095ea7b3146100bd57806318160ddd146100e057806323b872dd146100f7578063313ce5671461010a575b5f80fd5b6100a76101a2565b6040516100b491906105d1565b60405180910390f35b6100d06100cb366004610637565b61022d565b60405190151581526020016100b4565b6100e960035481565b6040519081526020016100b4565b6100d061010536600461065f565b610299565b6002546101179060ff1681565b60405160ff90911681526020016100b4565b61013c610137366004610637565b610465565b005b6100e961014c366004610698565b60046020525f908152604090205481565b6100a76104eb565b6100d0610173366004610637565b6104f8565b6100e96101863660046106b8565b600560209081525f928352604080842090915290825290205481565b5f80546101ae906106e9565b80601f01602080910402602001604051908101604052809291908181526020018280546101da906106e9565b80156102255780601f106101fc57610100808354040283529160200191610225565b820191905f5260205f20905b81548152906001019060200180831161020857829003601f168201915b505050505081565b335f8181526005602090815260408083206001600160a01b038716808552925280832085905551919290917f8c5be1e5ebec7d5bd14f71427d1e84f3dd0314c0f7b2291e5b200ac8c7c3b925906102879086815260200190565b60405180910390a35060015b92915050565b6001600160a01b0383165f908152600460205260408120548211156102f45760405162461bcd60e51b815260206004820152600c60248201526b125394d551919250d251539560a21b60448201526064015b60405180910390fd5b6001600160a01b0384165f9081526005602090815260408083203384529091529020545f19146103b4576001600160a01b0384165f90815260056020908152604080832033845290915290205482111561037c5760405162461bcd60e51b8152602060048201526009602482015268414c4c4f57414e434560b81b60448201526064016102eb565b6001600160a01b0384165f908152600560209081526040808320338452909152812080548492906103ae908490610735565b90915550505b6001600160a01b0384165f90815260046020526040812080548492906103db908490610735565b90915550506001600160a01b0383165f9081526004602052604081208054849290610407908490610748565b92505081905550826001600160a01b0316846001600160a01b03167fddf252ad1be2c89b69c2b068fc378daa952ba7f163c4a11628f55a4df523b3ef8460405161045391815260200190565b60405180910390a35060019392505050565b8060035f8282546104769190610748565b90915550506001600160a01b0382165f90815260046020526040812080548392906104a2908490610748565b90915550506040518181526001600160a01b038316905f907fddf252ad1be2c89b69c2b068fc378daa952ba7f163c4a11628f55a4df523b3ef9060200160405180910390a35050565b600180546101ae906106e9565b335f908152600460205260408120548211156105455760405162461bcd60e51b815260206004820152600c60248201526b125394d551919250d251539560a21b60448201526064016102eb565b335f9081526004602052604081208054849290610563908490610735565b90915550506001600160a01b0383165f908152600460205260408120805484929061058f908490610748565b90915550506040518281526001600160a01b0384169033907fddf252ad1be2c89b69c2b068fc378daa952ba7f163c4a11628f55a4df523b3ef90602001610287565b5f6020808352835180828501525f5b818110156105fc578581018301518582016040015282016105e0565b505f604082860101526040601f19601f8301168501019250505092915050565b80356001600160a01b0381168114610632575f80fd5b919050565b5f8060408385031215610648575f80fd5b6106518361061c565b946020939093013593505050565b5f805f60608486031215610671575f80fd5b61067a8461061c565b92506106886020850161061c565b9150604084013590509250925092565b5f602082840312156106a8575f80fd5b6106b18261061c565b9392505050565b5f80604083850312156106c9575f80fd5b6106d28361061c565b91506106e06020840161061c565b90509250929050565b600181811c908216806106fd57607f821691505b60208210810361071b57634e487b7160e01b5f52602260045260245ffd5b50919050565b634e487b7160e01b5f52601160045260245ffd5b8181038181111561029357610293610721565b808201808211156102935761029361072156fea2646970667358221220559c80c66424cb8a1c26013cd23d3e40ef29a4ec86c2fb4f67225592e01f40b164736f6c63430008140033000000000000000000000000000000000000000000000000000000000000006000000000000000000000000000000000000000000000000000000000000000a00000000000000000000000000000000000000000000000000000000000000012000000000000000000000000000000000000000000000000000000000000000d50726178696f6e205374616b65000000000000000000000000000000000000000000000000000000000000000000000000000000000000000000000000000005707853544b000000000000000000000000000000000000000000000000000000",
        "nonce": "0x2",
        "chainId": "0x14a34"
      },
      "additionalContracts": [],
      "isFixedGasLimit": false
    },
    {
      "hash": "0xb4a5436874148c00afd22a16a2335e7b82af135e5a5108d97eeb2c61559bea3a",
      "transactionType": "CREATE",
      "contractName": "MockRouter",
      "contractAddress": "0xa56b712f59128896386221e73458127aee066b6b",
      "function": null,
      "arguments": null,
      "transaction": {
        "from": "0x2080d5bf878e0df355a8105d011518b4eba15717",
        "gas": "0x57e1e",
        "value": "0x0",
        "input": "0x608060405234801561000f575f80fd5b5061040a8061001d5f395ff3fe608060405234801561000f575f80fd5b5060043610610034575f3560e01c80638d859f3e14610038578063d5bcb9b514610053575b5f80fd5b610041610bb881565b60405190815260200160405180910390f35b6100666100613660046102f3565b610068565b005b6040516323b872dd60e01b8152336004820152306024820152604481018490526001600160a01b038616906323b872dd906064016020604051808303815f875af11580156100b8573d5f803e3d5ffd5b505050506040513d601f19601f820116820180604052508101906100dc9190610346565b505f80866001600160a01b031663313ce5676040518163ffffffff1660e01b8152600401602060405180830381865afa15801561011b573d5f803e3d5ffd5b505050506040513d601f19601f8201168201806040525081019061013f919061036c565b90505f866001600160a01b031663313ce5676040518163ffffffff1660e01b8152600401602060405180830381865afa15801561017e573d5f803e3d5ffd5b505050506040513d601f19601f820116820180604052508101906101a2919061036c565b90508160ff1660061480156101ba57508060ff166012145b156101f1576101ce610bb8620f424061038c565b6101e087670de0b6b3a764000061038c565b6101ea91906103b5565b9250610232565b8160ff16601214801561020757508060ff166006145b1561022e57670de0b6b3a7640000610221610bb88861038c565b6101e090620f424061038c565b8592505b848310156102715760405162461bcd60e51b8152602060048201526008602482015267534c49505041474560c01b604482015260640160405180910390fd5b6040516340c10f1960e01b81526001600160a01b038581166004830152602482018590528816906340c10f19906044015f604051808303815f87803b1580156102b8575f80fd5b505af11580156102ca573d5f803e3d5ffd5b505050505050505050505050565b80356001600160a01b03811681146102ee575f80fd5b919050565b5f805f805f60a08688031215610307575f80fd5b610310866102d8565b945061031e602087016102d8565b9350604086013592506060860135915061033a608087016102d8565b90509295509295909350565b5f60208284031215610356575f80fd5b81518015158114610365575f80fd5b9392505050565b5f6020828403121561037c575f80fd5b815160ff81168114610365575f80fd5b80820281158282048414176103af57634e487b7160e01b5f52601160045260245ffd5b92915050565b5f826103cf57634e487b7160e01b5f52601260045260245ffd5b50049056fea264697066735822122093fc3d8a0b4558cccadecc219f413305103d43d0587b94efe755d8a08ce70a9c64736f6c63430008140033",
        "nonce": "0x3",
        "chainId": "0x14a34"
      },
      "additionalContracts": [],
      "isFixedGasLimit": false
    },
    {
      "hash": "0xd3ee60841111157be3a7ca1ea736349bffbe659e7ac9ee2067513996433052d6",
      "transactionType": "CREATE",
      "contractName": "PraxionPolicy",
      "contractAddress": "0xb4aca7874394b1dfa22b91ddced9f9085d5dbed0",
      "function": null,
      "arguments": null,
      "transaction": {
        "from": "0x2080d5bf878e0df355a8105d011518b4eba15717",
        "gas": "0xb94e7",
        "value": "0x0",
        "input": "0x608060405234801561000f575f80fd5b505f80546001600160a01b0319163390811782556040519091907f8be0079c531659141344cd1fd0a4f28419497f9722a3daafe3b4186f6b6457e0908290a36109258061005b5f395ff3fe608060405234801561000f575f80fd5b5060043610610060575f3560e01c806311db08ca146100645780638966df27146101a85780638da5cb5b146101bd578063939b89b7146101e7578063e97ea11a14610232578063f2fde38b14610245575b5f80fd5b610136610072366004610628565b6040805160e0810182525f80825260208201819052918101829052606081018290526080810182905260a0810182905260c0810191909152506001600160a01b03165f90815260016020818152604092839020835160e081018552815481529281015461ffff80821693850193909352620100008104831694840194909452640100000000840463ffffffff1660608401526801000000000000000090930460ff1615156080830152600283015460a083015260039092015490911660c082015290565b60405161019f91905f60e08201905082518252602083015161ffff808216602085015280604086015116604085015263ffffffff606086015116606085015260808501511515608085015260a085015160a08501528060c08601511660c0850152505092915050565b60405180910390f35b6101bb6101b6366004610648565b610258565b005b5f546101cf906001600160a01b031681565b6040516001600160a01b03909116815260200161019f565b6102226101f5366004610685565b6001600160a01b039182165f90815260026020908152604080832093909416825291909152205460ff1690565b604051901515815260200161019f565b6101bb6102403660046106c6565b610430565b6101bb610253366004610628565b610549565b5f546001600160a01b0316331461028a5760405162461bcd60e51b81526004016102819061070a565b60405180910390fd5b6001600160a01b0382166102cc5760405162461bcd60e51b815260206004820152600960248201526810905117d59055531560ba1b6044820152606401610281565b6127106102df604083016020840161073d565b61ffff1611156103205760405162461bcd60e51b815260206004820152600c60248201526b4241445f534c49505041474560a01b6044820152606401610281565b612710610333606083016040840161073d565b61ffff1611156103745760405162461bcd60e51b815260206004820152600c60248201526b4241445f4558504f5355524560a01b6044820152606401610281565b61271061038760e0830160c0840161073d565b61ffff1611156103c55760405162461bcd60e51b81526020600482015260096024820152680848288bea69882a6960bb1b6044820152606401610281565b6001600160a01b0382165f90815260016020526040902081906103e88282610787565b905050816001600160a01b03167f59e4603a2e5db69164995990f0f0219768825a7a30c22c468c36cfc7f6dc3b77826040516104249190610862565b60405180910390a25050565b5f546001600160a01b031633146104595760405162461bcd60e51b81526004016102819061070a565b6001600160a01b03831661049b5760405162461bcd60e51b815260206004820152600960248201526810905117d59055531560ba1b6044820152606401610281565b6001600160a01b0382166104dd5760405162461bcd60e51b815260206004820152600960248201526810905117d054d4d15560ba1b6044820152606401610281565b6001600160a01b038381165f81815260026020908152604080832094871680845294825291829020805460ff191686151590811790915591519182527fa534a2fbaf3eaba73d25d8ee4ad806f2c5a17126a0e4e4fb82074512c9b4b286910160405180910390a3505050565b5f546001600160a01b031633146105725760405162461bcd60e51b81526004016102819061070a565b6001600160a01b0381166105b45760405162461bcd60e51b81526020600482015260096024820152682120a22fa7aba722a960b91b6044820152606401610281565b5f80546040516001600160a01b03808516939216917f8be0079c531659141344cd1fd0a4f28419497f9722a3daafe3b4186f6b6457e091a35f80546001600160a01b0319166001600160a01b0392909216919091179055565b80356001600160a01b0381168114610623575f80fd5b919050565b5f60208284031215610638575f80fd5b6106418261060d565b9392505050565b5f8082840361010081121561065b575f80fd5b6106648461060d565b925060e0601f1982011215610677575f80fd5b506020830190509250929050565b5f8060408385031215610696575f80fd5b61069f8361060d565b91506106ad6020840161060d565b90509250929050565b80151581146106c3575f80fd5b50565b5f805f606084860312156106d8575f80fd5b6106e18461060d565b92506106ef6020850161060d565b915060408401356106ff816106b6565b809150509250925092565b6020808252600a908201526927a7262cafa7aba722a960b11b604082015260600190565b61ffff811681146106c3575f80fd5b5f6020828403121561074d575f80fd5b81356106418161072e565b5f81356107648161072e565b92915050565b63ffffffff811681146106c3575f80fd5b5f8135610764816106b6565b8135815560018101602083013561079d8161072e565b815461ffff191661ffff82161782555060408301356107bb8161072e565b815460608501356107cb8161076a565b67ffffffff000000008160201b1663ffff00008460101b1667ffffffffffff00001984161717845550505061082d6108056080850161077b565b82805468ff0000000000000000191691151560401b68ff000000000000000016919091179055565b5060a0820135600282015561085e61084760c08401610758565b6003830161ffff821661ffff198254161781555050565b5050565b8135815260e0810160208301356108788161072e565b61ffff90811660208401526040840135906108928261072e565b16604083015260608301356108a68161076a565b63ffffffff16606083015260808301356108bf816106b6565b1515608083015260a0838101359083015260c08301356108de8161072e565b61ffff811660c0840152509291505056fea2646970667358221220f57440287863c2ed6215b9a160a4c8c201275724f6ed5508478ec77d0e4081d864736f6c63430008140033",
        "nonce": "0x4",
        "chainId": "0x14a34"
      },
      "additionalContracts": [],
      "isFixedGasLimit": false
    },
    {
      "hash": "0xe7947dd9f70351f5d18c2bc861c60d7d7cef5326da098b83139154eadaf40156",
      "transactionType": "CREATE",
      "contractName": "PraxionAgentRegistry",
      "contractAddress": "0x281d1d6d04b23435a4d696e990d69e95da1e3208",
      "function": null,
      "arguments": [
        "0xC334D87ea6B2337364b77D5333bB8745d308Ce22",
        "100000000000000000000"
      ],
      "transaction": {
        "from": "0x2080d5bf878e0df355a8105d011518b4eba15717",
        "gas": "0xf7a48",
        "value": "0x0",
        "input": "0x60a060405234801561000f575f80fd5b50604051610d28380380610d2883398101604081905261002e91610082565b5f80546001600160a01b0319163390811782556040519091907f8be0079c531659141344cd1fd0a4f28419497f9722a3daafe3b4186f6b6457e0908290a36001600160a01b039091166080526001556100b9565b5f8060408385031215610093575f80fd5b82516001600160a01b03811681146100a9575f80fd5b6020939093015192949293505050565b608051610c426100e65f395f8181610170015281816103210152818161051b01526106bd0152610c425ff3fe608060405234801561000f575f80fd5b50600436106100e5575f3560e01c806365e1e466116100885780638da5cb5b116100635780638da5cb5b146102185780639aa541811461022a578063a694fc3a1461023d578063f2fde38b14610250575f80fd5b806365e1e466146101df578063678b3ee2146101f25780638c80fd9014610205575f80fd5b806342623360116100c3578063426233601461014c57806351ed6a301461016b57806352348080146101aa57806357601c5d146101bd575f80fd5b806303f45d41146100e95780632e17de7814610120578063375b3c0a14610135575b5f80fd5b61010b6100f7366004610a36565b60036020525f908152604090205460ff1681565b60405190151581526020015b60405180910390f35b61013361012e366004610a56565b610263565b005b61013e60015481565b604051908152602001610117565b61013e61015a366004610a36565b60026020525f908152604090205481565b6101927f000000000000000000000000000000000000000000000000000000000000000081565b6040516001600160a01b039091168152602001610117565b6101336101b8366004610a7d565b610380565b61010b6101cb366004610a36565b60046020525f908152604090205460ff1681565b61010b6101ed366004610a36565b610408565b610133610200366004610ab2565b61044e565b610133610213366004610a56565b610597565b5f54610192906001600160a01b031681565b610133610238366004610a7d565b6105fb565b61013361024b366004610a56565b61067b565b61013361025e366004610a36565b610739565b5f81116102a55760405162461bcd60e51b815260206004820152600b60248201526a16915493d7d05353d5539560aa1b60448201526064015b60405180910390fd5b335f908152600260205260409020548111156102f85760405162461bcd60e51b8152602060048201526012602482015271494e53554646494349454e545f5354414b4560701b604482015260640161029c565b335f9081526002602052604081208054839290610316908490610b46565b9091555061034790507f000000000000000000000000000000000000000000000000000000000000000033836107fd565b60405181815233907f0f5bb82176feb1b5e747e28471aa92156a04d9f3ab9f45f28e2d704232b93f75906020015b60405180910390a250565b5f546001600160a01b031633146103a95760405162461bcd60e51b815260040161029c90610b59565b6001600160a01b0382165f81815260046020908152604091829020805460ff191685151590811790915591519182527fffd5334d9f2bb272aaebfc6c24a6d997a83e846355b47e58d36e882916a6e62891015b60405180910390a25050565b6001600160a01b0381165f9081526003602052604081205460ff16801561044857506001546001600160a01b0383165f9081526002602052604090205410155b92915050565b335f9081526004602052604090205460ff1661049b5760405162461bcd60e51b815260206004820152600c60248201526b27a7262cafa9a620a9a422a960a11b604482015260640161029c565b6001600160a01b0384165f9081526002602052604081205484116104bf57836104d8565b6001600160a01b0385165f908152600260205260409020545b9050805f036104e75750610591565b6001600160a01b0385165f908152600260205260408120805483929061050e908490610b46565b90915550505f5461054a907f0000000000000000000000000000000000000000000000000000000000000000906001600160a01b0316836107fd565b846001600160a01b03167f7e947095ed288d8885423bdaef4015b7420ffa9b84d62ef67c402e8bc36a8ea982858560405161058793929190610b7d565b60405180910390a2505b50505050565b5f546001600160a01b031633146105c05760405162461bcd60e51b815260040161029c90610b59565b60018190556040518181527fa70bd512f7108f78a924d05836f49963c6d8583e3d39f5b6412eb5be70e8432a9060200160405180910390a150565b5f546001600160a01b031633146106245760405162461bcd60e51b815260040161029c90610b59565b6001600160a01b0382165f81815260036020908152604091829020805460ff191685151590811790915591519182527fff571df7d74779bb3bc4c418144ed2539441681cec39b558e6639f5faefc069591016103fc565b5f81116106b85760405162461bcd60e51b815260206004820152600b60248201526a16915493d7d05353d5539560aa1b604482015260640161029c565b6106e47f0000000000000000000000000000000000000000000000000000000000000000333084610905565b335f9081526002602052604081208054839290610702908490610bb2565b909155505060405181815233907f9e71bc8eea02a63969f509818f2dafb9254532904319f9dbda79b67bd34a5f3d90602001610375565b5f546001600160a01b031633146107625760405162461bcd60e51b815260040161029c90610b59565b6001600160a01b0381166107a45760405162461bcd60e51b81526020600482015260096024820152682120a22fa7aba722a960b91b604482015260640161029c565b5f80546040516001600160a01b03808516939216917f8be0079c531659141344cd1fd0a4f28419497f9722a3daafe3b4186f6b6457e091a35f80546001600160a01b0319166001600160a01b0392909216919091179055565b604080516001600160a01b038481166024830152604480830185905283518084039091018152606490920183526020820180516001600160e01b031663a9059cbb60e01b17905291515f928392908716916108589190610bc5565b5f604051808303815f865af19150503d805f8114610891576040519150601f19603f3d011682016040523d82523d5f602084013e610896565b606091505b50915091508180156108c05750805115806108c05750808060200190518101906108c09190610bf1565b6108fe5760405162461bcd60e51b815260206004820152600f60248201526e1514905394d1915497d19052531151608a1b604482015260640161029c565b5050505050565b604080516001600160a01b0385811660248301528481166044830152606480830185905283518084039091018152608490920183526020820180516001600160e01b03166323b872dd60e01b17905291515f928392908816916109689190610bc5565b5f604051808303815f865af19150503d805f81146109a1576040519150601f19603f3d011682016040523d82523d5f602084013e6109a6565b606091505b50915091508180156109d05750805115806109d05750808060200190518101906109d09190610bf1565b610a135760405162461bcd60e51b81526020600482015260146024820152731514905394d1915497d19493d357d1905253115160621b604482015260640161029c565b505050505050565b80356001600160a01b0381168114610a31575f80fd5b919050565b5f60208284031215610a46575f80fd5b610a4f82610a1b565b9392505050565b5f60208284031215610a66575f80fd5b5035919050565b8015158114610a7a575f80fd5b50565b5f8060408385031215610a8e575f80fd5b610a9783610a1b565b91506020830135610aa781610a6d565b809150509250929050565b5f805f8060608587031215610ac5575f80fd5b610ace85610a1b565b935060208501359250604085013567ffffffffffffffff80821115610af1575f80fd5b818701915087601f830112610b04575f80fd5b813581811115610b12575f80fd5b886020828501011115610b23575f80fd5b95989497505060200194505050565b634e487b7160e01b5f52601160045260245ffd5b8181038181111561044857610448610b32565b6020808252600a908201526927a7262cafa7aba722a960b11b604082015260600190565b83815260406020820152816040820152818360608301375f818301606090810191909152601f909201601f1916010192915050565b8082018082111561044857610448610b32565b5f82515f5b81811015610be45760208186018101518583015201610bca565b505f920191825250919050565b5f60208284031215610c01575f80fd5b8151610a4f81610a6d56fea2646970667358221220fbdab0b6d3184d0de2339ba4a74731a37201f03f7797878a864d1528dd6df94464736f6c63430008140033000000000000000000000000c334d87ea6b2337364b77d5333bb8745d308ce220000000000000000000000000000000000000000000000056bc75e2d63100000",
        "nonce": "0x5",
        "chainId": "0x14a34"
      },
      "additionalContracts": [],
      "isFixedGasLimit": false
    },
    {
      "hash": "0x2e231b736d4411610c356f196722977f5e548297a508f158dbe1c3bcbdcc649f",
      "transactionType": "CREATE",
      "contractName": "PraxionSettlement",
      "contractAddress": "0xf314a906d9463214f31af2be749f9cbb1d2c9242",
      "function": null,
      "arguments": [
        "0x2080d5Bf878E0dF355A8105D011518b4EbA15717",
        "0xb4ACa7874394b1DfA22B91DDceD9F9085D5dbeD0",
        "0x281D1D6D04B23435a4D696E990D69e95da1e3208"
      ],
      "transaction": {
        "from": "0x2080d5bf878e0df355a8105d011518b4eba15717",
        "gas": "0x11f283",
        "value": "0x0",
        "input": "0x60e060405234801561000f575f80fd5b5060405161104138038061104183398101604081905261002e91610066565b6001600160a01b0392831660805290821660a0521660c0526100a6565b80516001600160a01b0381168114610061575f80fd5b919050565b5f805f60608486031215610078575f80fd5b6100818461004b565b925061008f6020850161004b565b915061009d6040850161004b565b90509250925092565b60805160a05160c051610f586100e95f395f818160c2015281816106ed015261079501525f8181605e015261065101525f818160fe015261035c0152610f585ff3fe608060405234801561000f575f80fd5b5060043610610055575f3560e01c80630505c8c914610059578063171c4f111461009d5780637b103999146100bd578063c2e5f7af146100e4578063f645d4f9146100f9575b5f80fd5b6100807f000000000000000000000000000000000000000000000000000000000000000081565b6040516001600160a01b0390911681526020015b60405180910390f35b6100b06100ab366004610854565b610120565b60405161009491906108e2565b6100807f000000000000000000000000000000000000000000000000000000000000000081565b6100f76100f23660046109ea565b610351565b005b6100807f000000000000000000000000000000000000000000000000000000000000000081565b6101a060408051610160810182525f8082526020820181905291810182905290606082019081526040805160a0810182525f808252602082810182905292820181905260608201819052608082015291019081525f602082018190526040820181905260608083018290526080830182905260a083015260c09091015290565b5f8281526020818152604091829020825161016081018452815481526001808301546001600160a01b03908116948301949094526002830154938416948201949094529290916060840191600160a01b90910460ff16908111156102065761020661086b565b60018111156102175761021761086b565b81526040805160a0808201835260038501546001600160a01b0390811683526004860154166020838101919091526005860154838501526006860154606080850191909152600787015460808086019190915291860193909352600886015493850193909352600985015461ffff90811692850192909252600a85015492840192909252600b8401541690820152600c8201805460c0909201916102ba90610a56565b80601f01602080910402602001604051908101604052809291908181526020018280546102e690610a56565b80156103315780601f1061030857610100808354040283529160200191610331565b820191905f5260205f20905b81548152906001019060200180831161031457829003601f168201915b5050509183525050600d919091015460ff16151560209091015292915050565b336001600160a01b037f0000000000000000000000000000000000000000000000000000000000000000161461039a57604051630ddb036b60e11b815260040160405180910390fd5b5f8080808080808080806103b08b8d018d610c0a565b99509950995099509950995099509950995099505f8760ff1660018111156103da576103da61086b565b90506040518061016001604052808c81526020018b6001600160a01b031681526020018a6001600160a01b0316815260200182600181111561041e5761041e61086b565b81526020018881526020018781526020018661ffff1681526020018581526020018461ffff168152602001838152602001600115158152505f808d81526020019081526020015f205f820151815f01556020820151816001015f6101000a8154816001600160a01b0302191690836001600160a01b031602179055506040820151816002015f6101000a8154816001600160a01b0302191690836001600160a01b0316021790555060608201518160020160146101000a81548160ff021916908360018111156104f0576104f061086b565b021790555060808281015180516003840180546001600160a01b039283166001600160a01b031991821617909155602083015160048601805491909316911617905560408101516005840155606081015160068401550151600782015560a0820151600882015560c082015160098201805461ffff92831661ffff199182161790915560e0840151600a840155610100840151600b84018054919093169116179055610120820151600c8201906105a79082610d20565b5061014082015181600d015f6101000a81548160ff021916908315150217905550905050886001600160a01b03168a6001600160a01b03168c7fbcd26c29dc5ed3e509dc3cebb8c83a2841915825fd10841bbcd1769a6f4daf008460405161060f9190610ddc565b60405180910390a4600181600181111561062b5761062b61086b565b03610845576040516308ed846560e11b81526001600160a01b038b811660048301525f917f0000000000000000000000000000000000000000000000000000000000000000909116906311db08ca9060240160e060405180830381865afa158015610698573d5f803e3d5ffd5b505050506040513d601f19601f820116820180604052508101906106bc9190610e0a565b60c00151905061ffff81161561084357604051630213119b60e51b81526001600160a01b038b811660048301525f917f000000000000000000000000000000000000000000000000000000000000000090911690634262336090602401602060405180830381865afa158015610734573d5f803e3d5ffd5b505050506040513d601f19601f820116820180604052508101906107589190610e9a565b90505f61271061076c61ffff851684610eb1565b6107769190610ed4565b90508015610840576040516333c59f7160e11b81526001600160a01b037f0000000000000000000000000000000000000000000000000000000000000000169063678b3ee2906107ce908f9085908a90600401610ef3565b5f604051808303815f87803b1580156107e5575f80fd5b505af11580156107f7573d5f803e3d5ffd5b505050508b6001600160a01b03168e7f8a48565b84efa4e1f2815eac4042873c242790aee7d5a9d36a39cc6c3ebed3838360405161083791815260200190565b60405180910390a35b50505b505b50505050505050505050505050565b5f60208284031215610864575f80fd5b5035919050565b634e487b7160e01b5f52602160045260245ffd5b6002811061089b57634e487b7160e01b5f52602160045260245ffd5b9052565b5f81518084525f5b818110156108c3576020818501810151868301820152016108a7565b505f602082860101526020601f19601f83011685010191505092915050565b60208152815160208201525f602083015161090860408401826001600160a01b03169052565b5060408301516001600160a01b0381166060840152506060830151610930608084018261087f565b5060808381015180516001600160a01b0390811660a086015260208201511660c0850152604081015160e08501526060810151610100850152908101516101208401525060a0830151610140818185015260c0850151915061099961016085018361ffff169052565b60e085015161018085015261010085015161ffff166101a08501526101208501516101e06101c086018190529092506109d661020086018461089f565b959091015115159301929092525090919050565b5f80602083850312156109fb575f80fd5b823567ffffffffffffffff80821115610a12575f80fd5b818501915085601f830112610a25575f80fd5b813581811115610a33575f80fd5b866020828501011115610a44575f80fd5b60209290920196919550909350505050565b600181811c90821680610a6a57607f821691505b602082108103610a8857634e487b7160e01b5f52602260045260245ffd5b50919050565b6001600160a01b0381168114610aa2575f80fd5b50565b634e487b7160e01b5f52604160045260245ffd5b60405160e0810167ffffffffffffffff81118282101715610adc57610adc610aa5565b60405290565b5f60a08284031215610af2575f80fd5b60405160a0810181811067ffffffffffffffff82111715610b1557610b15610aa5565b6040529050808235610b2681610a8e565b81526020830135610b3681610a8e565b806020830152506040830135604082015260608301356060820152608083013560808201525092915050565b61ffff81168114610aa2575f80fd5b8035610b7c81610b62565b919050565b5f82601f830112610b90575f80fd5b813567ffffffffffffffff80821115610bab57610bab610aa5565b604051601f8301601f19908116603f01168101908282118183101715610bd357610bd3610aa5565b81604052838152866020858801011115610beb575f80fd5b836020870160208301375f602085830101528094505050505092915050565b5f805f805f805f805f806101c08b8d031215610c24575f80fd5b8a35995060208b0135610c3681610a8e565b985060408b0135610c4681610a8e565b975060608b013560ff81168114610c5b575f80fd5b9650610c6a8c60808d01610ae2565b95506101208b01359450610c816101408c01610b71565b93506101608b01359250610c986101808c01610b71565b91506101a08b013567ffffffffffffffff811115610cb4575f80fd5b610cc08d828e01610b81565b9150509295989b9194979a5092959850565b601f821115610d1b575f81815260208120601f850160051c81016020861015610cf85750805b601f850160051c820191505b81811015610d1757828155600101610d04565b5050505b505050565b815167ffffffffffffffff811115610d3a57610d3a610aa5565b610d4e81610d488454610a56565b84610cd2565b602080601f831160018114610d81575f8415610d6a5750858301515b5f19600386901b1c1916600185901b178555610d17565b5f85815260208120601f198616915b82811015610daf57888601518255948401946001909101908401610d90565b5085821015610dcc57878501515f19600388901b60f8161c191681555b5050505050600190811b01905550565b60208101610dea828461087f565b92915050565b8051610b7c81610b62565b80518015158114610b7c575f80fd5b5f60e08284031215610e1a575f80fd5b610e22610ab9565b825181526020830151610e3481610b62565b60208201526040830151610e4781610b62565b6040820152606083015163ffffffff81168114610e62575f80fd5b6060820152610e7360808401610dfb565b608082015260a083015160a0820152610e8e60c08401610df0565b60c08201529392505050565b5f60208284031215610eaa575f80fd5b5051919050565b8082028115828204841417610dea57634e487b7160e01b5f52601160045260245ffd5b5f82610eee57634e487b7160e01b5f52601260045260245ffd5b500490565b60018060a01b0384168152826020820152606060408201525f610f19606083018461089f565b9594505050505056fea2646970667358221220726378b2e6e33259be7842901cf5e207af34e884a2bfb1a00238fef3738b61dd64736f6c634300081400330000000000000000000000002080d5bf878e0df355a8105d011518b4eba15717000000000000000000000000b4aca7874394b1dfa22b91ddced9f9085d5dbed0000000000000000000000000281d1d6d04b23435a4d696e990d69e95da1e3208",
        "nonce": "0x6",
        "chainId": "0x14a34"
      },
      "additionalContracts": [],
      "isFixedGasLimit": false
    },
    {
      "hash": "0x8189797d27c409c935cefd33425bfc2699ff3a82835ba528a6acdf4335369c05",
      "transactionType": "CREATE",
      "contractName": "PraxionVault",
      "contractAddress": "0xfd75975ef959b2cd91278deb03198e96118a0e00",
      "function": null,
      "arguments": [
        "0x164261128D96B4e3BB12d33F7cA2ee4ac77e1cbB",
        "0xD34cbc03a93786be948F9dD0639cf0FfACD28341",
        "0xb4ACa7874394b1DfA22B91DDceD9F9085D5dbeD0",
        "0xf314a906D9463214f31Af2BE749f9Cbb1d2C9242",
        "0x281D1D6D04B23435a4D696E990D69e95da1e3208",
        "0xA56b712f59128896386221e73458127aEE066B6B"
      ],
      "transaction": {
        "from": "0x2080d5bf878e0df355a8105d011518b4eba15717",
        "gas": "0x1894b4",
        "value": "0x0",
        "input": "0x61014060405263b2d05e0060045534801562000019575f80fd5b506040516200168c3803806200168c8339810160408190526200003c9162000088565b6001600160a01b0395861660805293851660a05291841660c052831660e052821661010052166101205262000105565b80516001600160a01b038116811462000083575f80fd5b919050565b5f805f805f8060c087890312156200009e575f80fd5b620000a9876200006c565b9550620000b9602088016200006c565b9450620000c9604088016200006c565b9350620000d9606088016200006c565b9250620000e9608088016200006c565b9150620000f960a088016200006c565b90509295509295509295565b60805160a05160c05160e05161010051610120516114f9620001935f395f81816103560152818161078a01526107be01525f81816102b1015261039701525f8181610243015261050d01525f818161014c015261043401525f818161021c0152818161094601526109b301525f81816101f501528181610a8801528181610b100152610b5901526114f95ff3fe608060405234801561000f575f80fd5b5060043610610111575f3560e01c806366624d6e1161009e57806395d89b411161006e57806395d89b41146102d3578063c0fd2d79146102f9578063db81f99b1461032b578063f688bcfb1461033e578063f887ea4014610351575f80fd5b806366624d6e1461026557806366dd0f241461027a57806370a082311461028d5780637b103999146102ac575f80fd5b806318160ddd116100e457806318160ddd146101ce578063313ce567146101d65780633e413bee146101f05780633fc8cef314610217578063511606301461023e575f80fd5b806303186eef146101155780630505c8c91461014757806306fdde03146101865780630e85094c146101c5575b5f80fd5b610134610123366004610fdd565b60036020525f908152604090205481565b6040519081526020015b60405180910390f35b61016e7f000000000000000000000000000000000000000000000000000000000000000081565b6040516001600160a01b03909116815260200161013e565b6101b86040518060400160405280601381526020017250726178696f6e205661756c7420536861726560681b81525081565b60405161013e9190611021565b61013460045481565b6101345f5481565b6101de600681565b60405160ff909116815260200161013e565b61016e7f000000000000000000000000000000000000000000000000000000000000000081565b61016e7f000000000000000000000000000000000000000000000000000000000000000081565b61016e7f000000000000000000000000000000000000000000000000000000000000000081565b610278610273366004611053565b610378565b005b610278610288366004611097565b610922565b61013461029b366004610fdd565b60016020525f908152604090205481565b61016e7f000000000000000000000000000000000000000000000000000000000000000081565b6101b8604051806040016040528060078152602001661c1e159055531560ca1b81525081565b61031b610307366004611097565b60026020525f908152604090205460ff1681565b604051901515815260200161013e565b610278610339366004611097565b610a06565b61027861034c366004611097565b610aec565b61016e7f000000000000000000000000000000000000000000000000000000000000000081565b6040516332f0f23360e11b81526001600160a01b0382811660048301527f000000000000000000000000000000000000000000000000000000000000000016906365e1e46690602401602060405180830381865afa1580156103dc573d5f803e3d5ffd5b505050506040513d601f19601f8201168201806040525081019061040091906110c2565b61041d576040516313df827760e01b815260040160405180910390fd5b6040516308ed846560e11b81523060048201525f907f00000000000000000000000000000000000000000000000000000000000000006001600160a01b0316906311db08ca9060240160e060405180830381865afa158015610481573d5f803e3d5ffd5b505050506040513d601f19601f820116820180604052508101906104a5919061114d565b606001516001600160a01b0383165f908152600360205260409020549091506104d59063ffffffff8316906111ed565b4210156104f55760405163a2724a4d60e01b815260040160405180910390fd5b60405163171c4f1160e01b8152600481018490525f907f00000000000000000000000000000000000000000000000000000000000000006001600160a01b03169063171c4f11906024015f60405180830381865afa158015610559573d5f803e3d5ffd5b505050506040513d5f823e601f3d908101601f191682016040526105809190810190611326565b90508061014001516105c55760405162461bcd60e51b81526020600482015260096024820152681393d7d4915413d49560ba1b60448201526064015b60405180910390fd5b5f816060015160018111156105dc576105dc61142d565b146105fa576040516374d803ab60e01b815260040160405180910390fd5b60208101516001600160a01b03163014158061062c5750826001600160a01b031681604001516001600160a01b031614155b8061065c575061063f6020860186610fdd565b6001600160a01b031681608001515f01516001600160a01b031614155b8061069057506106726040860160208701610fdd565b6001600160a01b03168160800151602001516001600160a01b031614155b806106a75750846040013581608001516040015114155b806106be5750846060013581608001516060015114155b806106d55750846080013581608001516080015114155b156106f357604051630a180c5360e41b815260040160405180910390fd5b84608001354211156107185760405163476bc0ff60e11b815260040160405180910390fd5b5f8481526002602052604090205460ff161561074757604051630137be0b60e51b815260040160405180910390fd5b5f848152600260209081526040808320805460ff191660011790556001600160a01b0386168352600382529091204290556107b39061078890870187610fdd565b7f00000000000000000000000000000000000000000000000000000000000000008760400135610baa565b5f6001600160a01b037f0000000000000000000000000000000000000000000000000000000000000000166107eb6020880188610fdd565b6107fb6040890160208a01610fdd565b604080516001600160a01b0393841660248201529290911660448301528801356064820152606088013560848201523060a482015260c40160408051601f198184030181529181526020820180516001600160e01b031663d5bcb9b560e01b179052516108689190611441565b5f604051808303815f865af19150503d805f81146108a1576040519150601f19603f3d011682016040523d82523d5f602084013e6108a6565b606091505b50509050806108e55760405162461bcd60e51b815260206004820152600b60248201526a14d5d05417d1905253115160aa1b60448201526064016105bc565b6040516001600160a01b0385169086907f7b4e444c518497fda09340ade3e809091eed9e97ff4d1253011841fee03a13be905f90a3505050505050565b5f81116109415760405162461bcd60e51b81526004016105bc9061145c565b61096d7f0000000000000000000000000000000000000000000000000000000000000000333084610cb1565b5f670de0b6b3a764000060045483610985919061147a565b61098f9190611491565b905061099b3382610dc7565b60408051838152602081018390526001600160a01b037f0000000000000000000000000000000000000000000000000000000000000000169133917ff5681f9d0db1b911ac18ee83d515a1cf1051853a9eae418316a2fdf7dea427c591015b60405180910390a35050565b5f8111610a255760405162461bcd60e51b81526004016105bc9061145c565b335f90815260016020526040902054811115610a795760405162461bcd60e51b8152602060048201526013602482015272494e53554646494349454e545f53484152455360681b60448201526064016105bc565b610a833382610e45565b610aae7f00000000000000000000000000000000000000000000000000000000000000003383610ec5565b604080518281526020810183905233917f92ccf450a286a957af52509bc1c9939d1a6a481783e142e41e2499f0bb66ebc6910160405180910390a250565b5f8111610b0b5760405162461bcd60e51b81526004016105bc9061145c565b610b377f0000000000000000000000000000000000000000000000000000000000000000333084610cb1565b610b413382610dc7565b60408051828152602081018390526001600160a01b037f0000000000000000000000000000000000000000000000000000000000000000169133917ff5681f9d0db1b911ac18ee83d515a1cf1051853a9eae418316a2fdf7dea427c5910160405180910390a350565b604080516001600160a01b038481166024830152604480830185905283518084039091018152606490920183526020820180516001600160e01b031663095ea7b360e01b17905291515f92839290871691610c059190611441565b5f604051808303815f865af19150503d805f8114610c3e576040519150601f19603f3d011682016040523d82523d5f602084013e610c43565b606091505b5091509150818015610c6d575080511580610c6d575080806020019051810190610c6d91906110c2565b610caa5760405162461bcd60e51b815260206004820152600e60248201526d1054141493d59157d1905253115160921b60448201526064016105bc565b5050505050565b604080516001600160a01b0385811660248301528481166044830152606480830185905283518084039091018152608490920183526020820180516001600160e01b03166323b872dd60e01b17905291515f92839290881691610d149190611441565b5f604051808303815f865af19150503d805f8114610d4d576040519150601f19603f3d011682016040523d82523d5f602084013e610d52565b606091505b5091509150818015610d7c575080511580610d7c575080806020019051810190610d7c91906110c2565b610dbf5760405162461bcd60e51b81526020600482015260146024820152731514905394d1915497d19493d357d1905253115160621b60448201526064016105bc565b505050505050565b805f80828254610dd791906111ed565b90915550506001600160a01b0382165f9081526001602052604081208054839290610e039084906111ed565b90915550506040518181526001600160a01b038316905f907fddf252ad1be2c89b69c2b068fc378daa952ba7f163c4a11628f55a4df523b3ef906020016109fa565b6001600160a01b0382165f9081526001602052604081208054839290610e6c9084906114b0565b92505081905550805f80828254610e8391906114b0565b90915550506040518181525f906001600160a01b038416907fddf252ad1be2c89b69c2b068fc378daa952ba7f163c4a11628f55a4df523b3ef906020016109fa565b604080516001600160a01b038481166024830152604480830185905283518084039091018152606490920183526020820180516001600160e01b031663a9059cbb60e01b17905291515f92839290871691610f209190611441565b5f604051808303815f865af19150503d805f8114610f59576040519150601f19603f3d011682016040523d82523d5f602084013e610f5e565b606091505b5091509150818015610f88575080511580610f88575080806020019051810190610f8891906110c2565b610caa5760405162461bcd60e51b815260206004820152600f60248201526e1514905394d1915497d19052531151608a1b60448201526064016105bc565b6001600160a01b0381168114610fda575f80fd5b50565b5f60208284031215610fed575f80fd5b8135610ff881610fc6565b9392505050565b5f5b83811015611019578181015183820152602001611001565b50505f910152565b602081525f825180602084015261103f816040850160208701610fff565b601f01601f19169190910160400192915050565b5f805f83850360e0811215611066575f80fd5b60a0811215611073575f80fd5b5083925060a0840135915060c084013561108c81610fc6565b809150509250925092565b5f602082840312156110a7575f80fd5b5035919050565b805180151581146110bd575f80fd5b919050565b5f602082840312156110d2575f80fd5b610ff8826110ae565b634e487b7160e01b5f52604160045260245ffd5b60405160e0810167ffffffffffffffff81118282101715611112576111126110db565b60405290565b604051610160810167ffffffffffffffff81118282101715611112576111126110db565b805161ffff811681146110bd575f80fd5b5f60e0828403121561115d575f80fd5b6111656110ef565b825181526111756020840161113c565b60208201526111866040840161113c565b6040820152606083015163ffffffff811681146111a1575f80fd5b60608201526111b2608084016110ae565b608082015260a083015160a08201526111cd60c0840161113c565b60c08201529392505050565b634e487b7160e01b5f52601160045260245ffd5b80820180821115611200576112006111d9565b92915050565b80516110bd81610fc6565b8051600281106110bd575f80fd5b5f60a0828403121561122f575f80fd5b60405160a0810181811067ffffffffffffffff82111715611252576112526110db565b8060405250809150825161126581610fc6565b8152602083015161127581610fc6565b806020830152506040830151604082015260608301516060820152608083015160808201525092915050565b5f82601f8301126112b0575f80fd5b815167ffffffffffffffff808211156112cb576112cb6110db565b604051601f8301601f19908116603f011681019082821181831017156112f3576112f36110db565b8160405283815286602085880101111561130b575f80fd5b61131c846020830160208901610fff565b9695505050505050565b5f60208284031215611336575f80fd5b815167ffffffffffffffff8082111561134d575f80fd5b908301906101e08286031215611361575f80fd5b611369611118565b8251815261137960208401611206565b602082015261138a60408401611206565b604082015261139b60608401611211565b60608201526113ad866080850161121f565b60808201526101208084015160a08301526101406113cc81860161113c565b60c084015261016085015160e08401526113e9610180860161113c565b6101008401526101a085015184811115611401575f80fd5b61140d898288016112a1565b838501525061141f6101c086016110ae565b908301525095945050505050565b634e487b7160e01b5f52602160045260245ffd5b5f8251611452818460208701610fff565b9190910192915050565b6020808252600490820152635a45524f60e01b604082015260600190565b8082028115828204841417611200576112006111d9565b5f826114ab57634e487b7160e01b5f52601260045260245ffd5b500490565b81810381811115611200576112006111d956fea2646970667358221220a5a6278729d8264f58eae30253ca5b53d6784dae0c091e4c30ed6d2b40368a5164736f6c63430008140033000000000000000000000000164261128d96b4e3bb12d33f7ca2ee4ac77e1cbb000000000000000000000000d34cbc03a93786be948f9dd0639cf0ffacd28341000000000000000000000000b4aca7874394b1dfa22b91ddced9f9085d5dbed0000000000000000000000000f314a906d9463214f31af2be749f9cbb1d2c9242000000000000000000000000281d1d6d04b23435a4d696e990d69e95da1e3208000000000000000000000000a56b712f59128896386221e73458127aee066b6b",
        "nonce": "0x7",
        "chainId": "0x14a34"
      },
      "additionalContracts": [],
      "isFixedGasLimit": false
    },
    {
      "hash": "0x050108d4819e4b4972f8f4903485434a4c7720851cded2207f23044ce252757b",
      "transactionType": "CALL",
      "contractName": "PraxionPolicy",
      "contractAddress": "0xb4aca7874394b1dfa22b91ddced9f9085d5dbed0",
      "function": "setConstraints(address,(uint256,uint16,uint16,uint32,bool,uint256,uint16))",
      "arguments": [
        "0xFd75975ef959B2cd91278DEB03198e96118a0E00",
        "(50000000000, 500, 3000, 60, true, 100000000000000000000, 1000)"
      ],
      "transaction": {
        "from": "0x2080d5bf878e0df355a8105d011518b4eba15717",
        "to": "0xb4aca7874394b1dfa22b91ddced9f9085d5dbed0",
        "gas": "0x280d0",
        "value": "0x0",
        "input": "0x8966df27000000000000000000000000fd75975ef959b2cd91278deb03198e96118a0e000000000000000000000000000000000000000000000000000000000ba43b740000000000000000000000000000000000000000000000000000000000000001f40000000000000000000000000000000000000000000000000000000000000bb8000000000000000000000000000000000000000000000000000000000000003c00000000000000000000000000000000000000000000000000000000000000010000000000000000000000000000000000000000000000056bc75e2d6310000000000000000000000000000000000000000000000000000000000000000003e8",
        "nonce": "0x8",
        "chainId": "0x14a34"
      },
      "additionalContracts": [],
      "isFixedGasLimit": false
    },
    {
      "hash": "0xdfe69aaaf9d472d880f5bafa90f83886bdd0eaebd60bd157a7ac5aec9b34c581",
      "transactionType": "CALL",
      "contractName": "PraxionPolicy",
      "contractAddress": "0xb4aca7874394b1dfa22b91ddced9f9085d5dbed0",
      "function": "setAllowedAsset(address,address,bool)",
      "arguments": [
        "0xFd75975ef959B2cd91278DEB03198e96118a0E00",
        "0x164261128D96B4e3BB12d33F7cA2ee4ac77e1cbB",
        "true"
      ],
      "transaction": {
        "from": "0x2080d5bf878e0df355a8105d011518b4eba15717",
        "to": "0xb4aca7874394b1dfa22b91ddced9f9085d5dbed0",
        "gas": "0x1075c",
        "value": "0x0",
        "input": "0xe97ea11a000000000000000000000000fd75975ef959b2cd91278deb03198e96118a0e00000000000000000000000000164261128d96b4e3bb12d33f7ca2ee4ac77e1cbb0000000000000000000000000000000000000000000000000000000000000001",
        "nonce": "0x9",
        "chainId": "0x14a34"
      },
      "additionalContracts": [],
      "isFixedGasLimit": false
    },
    {
      "hash": "0xf6234e8515ddc8f08a8e78fe48038a23a2d90da866881cb68d55c130437316b9",
      "transactionType": "CALL",
      "contractName": "PraxionPolicy",
      "contractAddress": "0xb4aca7874394b1dfa22b91ddced9f9085d5dbed0",
      "function": "setAllowedAsset(address,address,bool)",
      "arguments": [
        "0xFd75975ef959B2cd91278DEB03198e96118a0E00",
        "0xD34cbc03a93786be948F9dD0639cf0FfACD28341",
        "true"
      ],
      "transaction": {
        "from": "0x2080d5bf878e0df355a8105d011518b4eba15717",
        "to": "0xb4aca7874394b1dfa22b91ddced9f9085d5dbed0",
        "gas": "0x1075c",
        "value": "0x0",
        "input": "0xe97ea11a000000000000000000000000fd75975ef959b2cd91278deb03198e96118a0e00000000000000000000000000d34cbc03a93786be948f9dd0639cf0ffacd283410000000000000000000000000000000000000000000000000000000000000001",
        "nonce": "0xa",
        "chainId": "0x14a34"
      },
      "additionalContracts": [],
      "isFixedGasLimit": false
    },
    {
      "hash": "0xaa77b443377276a5f7115ecf06f9d5c342af4b556d26528d1adadedd3cd5ecef",
      "transactionType": "CALL",
      "contractName": "PraxionAgentRegistry",
      "contractAddress": "0x281d1d6d04b23435a4d696e990d69e95da1e3208",
      "function": "setAllowlisted(address,bool)",
      "arguments": [
        "0x2080d5Bf878E0dF355A8105D011518b4EbA15717",
        "true"
      ],
      "transaction": {
        "from": "0x2080d5bf878e0df355a8105d011518b4eba15717",
        "to": "0x281d1d6d04b23435a4d696e990d69e95da1e3208",
        "gas": "0x11139",
        "value": "0x0",
        "input": "0x9aa541810000000000000000000000002080d5bf878e0df355a8105d011518b4eba157170000000000000000000000000000000000000000000000000000000000000001",
        "nonce": "0xb",
        "chainId": "0x14a34"
      },
      "additionalContracts": [],
      "isFixedGasLimit": false
    },
    {
      "hash": "0x0d98d637e5085829d41dfd96f54fe29c61750f3012dbe4e5e2a8e788d38f8b90",
      "transactionType": "CALL",
      "contractName": "PraxionAgentRegistry",
      "contractAddress": "0x281d1d6d04b23435a4d696e990d69e95da1e3208",
      "function": "setSlasher(address,bool)",
      "arguments": [
        "0xf314a906D9463214f31Af2BE749f9Cbb1d2C9242",
        "true"
      ],
      "transaction": {
        "from": "0x2080d5bf878e0df355a8105d011518b4eba15717",
        "to": "0x281d1d6d04b23435a4d696e990d69e95da1e3208",
        "gas": "0x1021b",
        "value": "0x0",
        "input": "0x52348080000000000000000000000000f314a906d9463214f31af2be749f9cbb1d2c92420000000000000000000000000000000000000000000000000000000000000001",
        "nonce": "0xc",
        "chainId": "0x14a34"
      },
      "additionalContracts": [],
      "isFixedGasLimit": false
    },
    {
      "hash": "0x7647a2d94ffb7ab2a26145320e19adc8d3ec0572c69723a8854b7f7d85d23068",
      "transactionType": "CALL",
      "contractName": "MockERC20",
      "contractAddress": "0x164261128d96b4e3bb12d33f7ca2ee4ac77e1cbb",
      "function": "mint(address,uint256)",
      "arguments": [
        "0x2080d5Bf878E0dF355A8105D011518b4EbA15717",
        "1000000000000"
      ],
      "transaction": {
        "from": "0x2080d5bf878e0df355a8105d011518b4eba15717",
        "to": "0x164261128d96b4e3bb12d33f7ca2ee4ac77e1cbb",
        "gas": "0x185f1",
        "value": "0x0",
        "input": "0x40c10f190000000000000000000000002080d5bf878e0df355a8105d011518b4eba15717000000000000000000000000000000000000000000000000000000e8d4a51000",
        "nonce": "0xd",
        "chainId": "0x14a34"
      },
      "additionalContracts": [],
      "isFixedGasLimit": false
    },
    {
      "hash": "0xb18cc67cbd9916989d55747fba2b8516cfa7b9a6df89615d1ec1e3dbde2c4348",
      "transactionType": "CALL",
      "contractName": "MockERC20",
      "contractAddress": "0xd34cbc03a93786be948f9dd0639cf0ffacd28341",
      "function": "mint(address,uint256)",
      "arguments": [
        "0x2080d5Bf878E0dF355A8105D011518b4EbA15717",
        "100000000000000000000"
      ],
      "transaction": {
        "from": "0x2080d5bf878e0df355a8105d011518b4eba15717",
        "to": "0xd34cbc03a93786be948f9dd0639cf0ffacd28341",
        "gas": "0x17079",
        "value": "0x0",
        "input": "0x40c10f190000000000000000000000002080d5bf878e0df355a8105d011518b4eba157170000000000000000000000000000000000000000000000056bc75e2d63100000",
        "nonce": "0xe",
        "chainId": "0x14a34"
      },
      "additionalContracts": [],
      "isFixedGasLimit": false
    },
    {
      "hash": "0xad94d471652246d9d618d49745e46a0cecd2e70827a2137e9f06d8ad55cd5cbc",
      "transactionType": "CALL",
      "contractName": "MockERC20",
      "contractAddress": "0xc334d87ea6b2337364b77d5333bb8745d308ce22",
      "function": "mint(address,uint256)",
      "arguments": [
        "0x2080d5Bf878E0dF355A8105D011518b4EbA15717",
        "10000000000000000000000"
      ],
      "transaction": {
        "from": "0x2080d5bf878e0df355a8105d011518b4eba15717",
        "to": "0xc334d87ea6b2337364b77d5333bb8745d308ce22",
        "gas": "0x18637",
        "value": "0x0",
        "input": "0x40c10f190000000000000000000000002080d5bf878e0df355a8105d011518b4eba1571700000000000000000000000000000000000000000000021e19e0c9bab2400000",
        "nonce": "0xf",
        "chainId": "0x14a34"
      },
      "additionalContracts": [],
      "isFixedGasLimit": false
    },
    {
      "hash": "0x731d5987def20473262cbaae75c45f0a43e62cee5e7d9cb4d1741c3593939244",
      "transactionType": "CALL",
      "contractName": "MockERC20",
      "contractAddress": "0xd34cbc03a93786be948f9dd0639cf0ffacd28341",
      "function": "mint(address,uint256)",
      "arguments": [
        "0xA56b712f59128896386221e73458127aEE066B6B",
        "1000000000000000000000"
      ],
      "transaction": {
        "from": "0x2080d5bf878e0df355a8105d011518b4eba15717",
        "to": "0xd34cbc03a93786be948f9dd0639cf0ffacd28341",
        "gas": "0x12475",
        "value": "0x0",
        "input": "0x40c10f19000000000000000000000000a56b712f59128896386221e73458127aee066b6b00000000000000000000000000000000000000000000003635c9adc5dea00000",
        "nonce": "0x10",
        "chainId": "0x14a34"
      },
      "additionalContracts": [],
      "isFixedGasLimit": false
    },
    {
      "hash": "0x36c6c0d393fb7aeba6ecebe3961e0fac200ecb65205b6b531f30b724e1f8965c",
      "transactionType": "CALL",
      "contractName": "MockERC20",
      "contractAddress": "0x164261128d96b4e3bb12d33f7ca2ee4ac77e1cbb",
      "function": "mint(address,uint256)",
      "arguments": [
        "0xA56b712f59128896386221e73458127aEE066B6B",
        "3000000000000"
      ],
      "transaction": {
        "from": "0x2080d5bf878e0df355a8105d011518b4eba15717",
        "to": "0x164261128d96b4e3bb12d33f7ca2ee4ac77e1cbb",
        "gas": "0x12452",
        "value": "0x0",
        "input": "0x40c10f19000000000000000000000000a56b712f59128896386221e73458127aee066b6b000000000000000000000000000000000000000000000000000002ba7def3000",
        "nonce": "0x11",
        "chainId": "0x14a34"
      },
      "additionalContracts": [],
      "isFixedGasLimit": false
    },
    {
      "hash": "0x836c86116e70123fc44801047acac9d36395ddf35917ef40d2c7cdb63c55095f",
      "transactionType": "CALL",
      "contractName": "MockERC20",
      "contractAddress": "0xc334d87ea6b2337364b77d5333bb8745d308ce22",
      "function": "approve(address,uint256)",
      "arguments": [
        "0x281D1D6D04B23435a4D696E990D69e95da1e3208",
        "1000000000000000000000"
      ],
      "transaction": {
        "from": "0x2080d5bf878e0df355a8105d011518b4eba15717",
        "to": "0xc334d87ea6b2337364b77d5333bb8745d308ce22",
        "gas": "0xf913",
        "value": "0x0",
        "input": "0x095ea7b3000000000000000000000000281d1d6d04b23435a4d696e990d69e95da1e320800000000000000000000000000000000000000000000003635c9adc5dea00000",
        "nonce": "0x12",
        "chainId": "0x14a34"
      },
      "additionalContracts": [],
      "isFixedGasLimit": false
    },
    {
      "hash": "0xe88e84f466a90f90905a91055cbb37f012d11e54a83ff94b33f1549709dd7d4d",
      "transactionType": "CALL",
      "contractName": "PraxionAgentRegistry",
      "contractAddress": "0x281d1d6d04b23435a4d696e990d69e95da1e3208",
      "function": "stake(uint256)",
      "arguments": [
        "1000000000000000000000"
      ],
      "transaction": {
        "from": "0x2080d5bf878e0df355a8105d011518b4eba15717",
        "to": "0x281d1d6d04b23435a4d696e990d69e95da1e3208",
        "gas": "0x1c9a2",
        "value": "0x0",
        "input": "0xa694fc3a00000000000000000000000000000000000000000000003635c9adc5dea00000",
        "nonce": "0x13",
        "chainId": "0x14a34"
      },
      "additionalContracts": [],
      "isFixedGasLimit": false
    },
    {
      "hash": "0xb09e7945db810392698ab47da16e89a6b9a35f1661a1fc2646c09837234d61c3",
      "transactionType": "CALL",
      "contractName": "MockERC20",
      "contractAddress": "0x164261128d96b4e3bb12d33f7ca2ee4ac77e1cbb",
      "function": "approve(address,uint256)",
      "arguments": [
        "0xFd75975ef959B2cd91278DEB03198e96118a0E00",
        "100000000000"
      ],
      "transaction": {
        "from": "0x2080d5bf878e0df355a8105d011518b4eba15717",
        "to": "0x164261128d96b4e3bb12d33f7ca2ee4ac77e1cbb",
        "gas": "0xf8d1",
        "value": "0x0",
        "input": "0x095ea7b3000000000000000000000000fd75975ef959b2cd91278deb03198e96118a0e00000000000000000000000000000000000000000000000000000000174876e800",
        "nonce": "0x14",
        "chainId": "0x14a34"
      },
      "additionalContracts": [],
      "isFixedGasLimit": false
    },
    {
      "hash": "0x899cc1e789bcad7684f02d6f0834e7698e582b20c3656a9eedfece14a4e56298",
      "transactionType": "CALL",
      "contractName": "PraxionVault",
      "contractAddress": "0xfd75975ef959b2cd91278deb03198e96118a0e00",
      "function": "depositUSDC(uint256)",
      "arguments": [
        "100000000000"
      ],
      "transaction": {
        "from": "0x2080d5bf878e0df355a8105d011518b4eba15717",
        "to": "0xfd75975ef959b2cd91278deb03198e96118a0e00",
        "gas": "0x25723",
        "value": "0x0",
        "input": "0xf688bcfb000000000000000000000000000000000000000000000000000000174876e800",
        "nonce": "0x15",
        "chainId": "0x14a34"
      },
      "additionalContracts": [],
      "isFixedGasLimit": false
    }
  ],
  "receipts": [
    {
      "status": "0x1",
      "cumulativeGasUsed": "0xc8830",
      "logs": [],
      "logsBloom": "0x00000000000000000000000000000000000000000000000000000000000000000000000000000000000000000000000000000000000000000000000000000000000000000000000000000000000000000000000000000000000000000000000000000000000000000000000000000000000000000000000000000000000000000000000000000000000000000000000000000000000000000000000000000000000000000000000000000000000000000000000000000000000000000000000000000000000000000000000000000000000000000000000000000000000000000000000000000000000000000000000000000000000000000000000000000000",
      "type": "0x2",
      "transactionHash": "0xb4a5436874148c00afd22a16a2335e7b82af135e5a5108d97eeb2c61559bea3a",
      "transactionIndex": "0x6",
      "blockHash": "0x0000000000000000000000000000000000000000000000000000000000000000",
      "blockNumber": "0x243d390",
      "gasUsed": "0x86f8c",
      "effectiveGasPrice": "0x5b8d80",
      "blobGasUsed": "0x3a21b",
      "from": "0x2080d5bf878e0df355a8105d011518b4eba15717",
      "to": null,
      "contractAddress": "0x164261128d96b4e3bb12d33f7ca2ee4ac77e1cbb",
      "daFootprintGasScalar": "0x8b",
      "l1BaseFeeScalar": "0x44d",
      "l1BlobBaseFee": "0x1",
      "l1BlobBaseFeeScalar": "0xa118b",
      "l1Fee": "0x57",
      "l1GasPrice": "0xc",
      "l1GasUsed": "0x6b13"
    },
    {
      "status": "0x1",
      "cumulativeGasUsed": "0x14f7f8",
      "logs": [],
      "logsBloom": "0x00000000000000000000000000000000000000000000000000000000000000000000000000000000000000000000000000000000000000000000000000000000000000000000000000000000000000000000000000000000000000000000000000000000000000000000000000000000000000000000000000000000000000000000000000000000000000000000000000000000000000000000000000000000000000000000000000000000000000000000000000000000000000000000000000000000000000000000000000000000000000000000000000000000000000000000000000000000000000000000000000000000000000000000000000000000",
      "type": "0x2",
      "transactionHash": "0xe393e093ae5e3022e2ddef53ad23e27ae91851ea46e53fa292f474b9744513d3",
      "transactionIndex": "0x7",
      "blockHash": "0x0000000000000000000000000000000000000000000000000000000000000000",
      "blockNumber": "0x243d390",
      "gasUsed": "0x86fc8",
      "effectiveGasPrice": "0x5b8d80",
      "blobGasUsed": "0x3a447",
      "from": "0x2080d5bf878e0df355a8105d011518b4eba15717",
      "to": null,
      "contractAddress": "0xd34cbc03a93786be948f9dd0639cf0ffacd28341",
      "daFootprintGasScalar": "0x8b",
      "l1BaseFeeScalar": "0x44d",
      "l1BlobBaseFee": "0x1",
      "l1BlobBaseFeeScalar": "0xa118b",
      "l1Fee": "0x57",
      "l1GasPrice": "0xc",
      "l1GasUsed": "0x6b56"
    },
    {
      "status": "0x1",
      "cumulativeGasUsed": "0x1d67cc",
      "logs": [],
      "logsBloom": "0x00000000000000000000000000000000000000000000000000000000000000000000000000000000000000000000000000000000000000000000000000000000000000000000000000000000000000000000000000000000000000000000000000000000000000000000000000000000000000000000000000000000000000000000000000000000000000000000000000000000000000000000000000000000000000000000000000000000000000000000000000000000000000000000000000000000000000000000000000000000000000000000000000000000000000000000000000000000000000000000000000000000000000000000000000000000",
      "type": "0x2",
      "transactionHash": "0xef0f71d508714d90feeeb975a35335a53c0def1594cafdb494a42b4489cd7a6b",
      "transactionIndex": "0x8",
      "blockHash": "0x0000000000000000000000000000000000000000000000000000000000000000",
      "blockNumber": "0x243d390",
      "gasUsed": "0x86fd4",
      "effectiveGasPrice": "0x5b8d80",
      "blobGasUsed": "0x3a4d2",
      "from": "0x2080d5bf878e0df355a8105d011518b4eba15717",
      "to": null,
      "contractAddress": "0xc334d87ea6b2337364b77d5333bb8745d308ce22",
      "daFootprintGasScalar": "0x8b",
      "l1BaseFeeScalar": "0x44d",
      "l1BlobBaseFee": "0x1",
      "l1BlobBaseFeeScalar": "0xa118b",
      "l1Fee": "0x57",
      "l1GasPrice": "0xc",
      "l1GasUsed": "0x6b63"
    },
    {
      "status": "0x1",
      "cumulativeGasUsed": "0x21a16d",
      "logs": [],
      "logsBloom": "0x00000000000000000000000000000000000000000000000000000000000000000000000000000000000000000000000000000000000000000000000000000000000000000000000000000000000000000000000000000000000000000000000000000000000000000000000000000000000000000000000000000000000000000000000000000000000000000000000000000000000000000000000000000000000000000000000000000000000000000000000000000000000000000000000000000000000000000000000000000000000000000000000000000000000000000000000000000000000000000000000000000000000000000000000000000000",
      "type": "0x2",
      "transactionHash": "0x2e231b736d4411610c356f196722977f5e548297a508f158dbe1c3bcbdcc649f",
      "transactionIndex": "0x9",
      "blockHash": "0x0000000000000000000000000000000000000000000000000000000000000000",
      "blockNumber": "0x243d390",
      "gasUsed": "0x439a1",
      "effectiveGasPrice": "0x5b8d80",
      "blobGasUsed": "0x17731",
      "from": "0x2080d5bf878e0df355a8105d011518b4eba15717",
      "to": null,
      "contractAddress": "0xa56b712f59128896386221e73458127aee066b6b",
      "daFootprintGasScalar": "0x8b",
      "l1BaseFeeScalar": "0x44d",
      "l1BlobBaseFee": "0x1",
      "l1BlobBaseFeeScalar": "0xa118b",
      "l1Fee": "0x57",
      "l1GasPrice": "0xc",
      "l1GasUsed": "0x2b3d"
    },
    {
      "status": "0x1",
      "cumulativeGasUsed": "0x2a8a1f",
      "logs": [
        {
          "address": "0xb4aca7874394b1dfa22b91ddced9f9085d5dbed0",
          "topics": [
            "0x8be0079c531659141344cd1fd0a4f28419497f9722a3daafe3b4186f6b6457e0",
            "0x0000000000000000000000000000000000000000000000000000000000000000",
            "0x0000000000000000000000002080d5bf878e0df355a8105d011518b4eba15717"
          ],
          "data": "0x",
          "blockHash": "0x0000000000000000000000000000000000000000000000000000000000000000",
          "blockNumber": "0x243d390",
          "blockTimestamp": "0x699b0600",
          "transactionHash": "0xd3ee60841111157be3a7ca1ea736349bffbe659e7ac9ee2067513996433052d6",
          "transactionIndex": "0xa",
          "logIndex": "0x1",
          "removed": false
        }
      ],
      "logsBloom": "0x00000000000000000000000000000000000000000000000000800000000000000000000000000000000000000000000000000000200000000000000000000000000000000000000000000000000000000001000000000000000000000000000000000000020000000000000000000800000000000000000000000000000000400000000000000000000000000000000000000000000000200000000040000000000000000800000000000000000000000000000000000000000000000000000000000000000000000000000002000000000000000000000000000000002020000000000000000000000000000000000000000000000000000000000000000000",
      "type": "0x2",
      "transactionHash": "0xd3ee60841111157be3a7ca1ea736349bffbe659e7ac9ee2067513996433052d6",
      "transactionIndex": "0xa",
      "blockHash": "0x0000000000000000000000000000000000000000000000000000000000000000",
      "blockNumber": "0x243d390",
      "gasUsed": "0x8e8b2",
      "effectiveGasPrice": "0x5b8d80",
      "blobGasUsed": "0x3171b",
      "from": "0x2080d5bf878e0df355a8105d011518b4eba15717",
      "to": null,
      "contractAddress": "0xb4aca7874394b1dfa22b91ddced9f9085d5dbed0",
      "daFootprintGasScalar": "0x8b",
      "l1BaseFeeScalar": "0x44d",
      "l1BlobBaseFee": "0x1",
      "l1BlobBaseFeeScalar": "0xa118b",
      "l1Fee": "0x57",
      "l1GasPrice": "0xc",
      "l1GasUsed": "0x5b14"
    },
    {
      "status": "0x1",
      "cumulativeGasUsed": "0x367208",
      "logs": [
        {
          "address": "0x281d1d6d04b23435a4d696e990d69e95da1e3208",
          "topics": [
            "0x8be0079c531659141344cd1fd0a4f28419497f9722a3daafe3b4186f6b6457e0",
            "0x0000000000000000000000000000000000000000000000000000000000000000",
            "0x0000000000000000000000002080d5bf878e0df355a8105d011518b4eba15717"
          ],
          "data": "0x",
          "blockHash": "0x0000000000000000000000000000000000000000000000000000000000000000",
          "blockNumber": "0x243d390",
          "blockTimestamp": "0x699b0600",
          "transactionHash": "0xd07508bbff13db4640218058cfead2c588da7027a88bd5883ecaf8f2c8c82629",
          "transactionIndex": "0xb",
          "logIndex": "0x2",
          "removed": false
        }
      ],
      "logsBloom": "0x00000000000000000000000000000000000000000000000000800000000000000000000000000000000000000000000000000000200000000000000000000000000000000000000000000000000000000001000000000000000000000000000000000000020000000000000000000800000000000000000000000000000000400000000000000000000000000000000000000000000000200040000000000000000000000000000000000000000000000000000000000000000000000000000000000000000008000000000002000000000000000000000000000000000020000000000000000000000000000000000000000004000000000000000000000000",
      "type": "0x2",
      "transactionHash": "0xd07508bbff13db4640218058cfead2c588da7027a88bd5883ecaf8f2c8c82629",
      "transactionIndex": "0xb",
      "blockHash": "0x0000000000000000000000000000000000000000000000000000000000000000",
      "blockNumber": "0x243d390",
      "gasUsed": "0xbe7e9",
      "effectiveGasPrice": "0x5b8d80",
      "blobGasUsed": "0x42da6",
      "from": "0x2080d5bf878e0df355a8105d011518b4eba15717",
      "to": null,
      "contractAddress": "0x281d1d6d04b23435a4d696e990d69e95da1e3208",
      "daFootprintGasScalar": "0x8b",
      "l1BaseFeeScalar": "0x44d",
      "l1BlobBaseFee": "0x1",
      "l1BlobBaseFeeScalar": "0xa118b",
      "l1Fee": "0x57",
      "l1GasPrice": "0xc",
      "l1GasUsed": "0x7b20"
    },
    {
      "status": "0x1",
      "cumulativeGasUsed": "0x444046",
      "logs": [],
      "logsBloom": "0x00000000000000000000000000000000000000000000000000000000000000000000000000000000000000000000000000000000000000000000000000000000000000000000000000000000000000000000000000000000000000000000000000000000000000000000000000000000000000000000000000000000000000000000000000000000000000000000000000000000000000000000000000000000000000000000000000000000000000000000000000000000000000000000000000000000000000000000000000000000000000000000000000000000000000000000000000000000000000000000000000000000000000000000000000000000",
      "type": "0x2",
      "transactionHash": "0xe7947dd9f70351f5d18c2bc861c60d7d7cef5326da098b83139154eadaf40156",
      "transactionIndex": "0xc",
      "blockHash": "0x0000000000000000000000000000000000000000000000000000000000000000",
      "blockNumber": "0x243d390",
      "gasUsed": "0xdce3e",
      "effectiveGasPrice": "0x5b8d80",
      "blobGasUsed": "0x592ec",
      "from": "0x2080d5bf878e0df355a8105d011518b4eba15717",
      "to": null,
      "contractAddress": "0xf314a906d9463214f31af2be749f9cbb1d2c9242",
      "daFootprintGasScalar": "0x8b",
      "l1BaseFeeScalar": "0x44d",
      "l1BlobBaseFee": "0x1",
      "l1BlobBaseFeeScalar": "0xa118b",
      "l1Fee": "0x57",
      "l1GasPrice": "0xc",
      "l1GasUsed": "0xa445"
    },
    {
      "status": "0x1",
      "cumulativeGasUsed": "0x58e4c4",
      "logs": [],
      "logsBloom": "0x00000000000000000000000000000000000000000000000000000000000000000000000000000000000000000000000000000000000000000000000000000000000000000000000000000000000000000000000000000000000000000000000000000000000000000000000000000000000000000000000000000000000000000000000000000000000000000000000000000000000000000000000000000000000000000000000000000000000000000000000000000000000000000000000000000000000000000000000000000000000000000000000000000000000000000000000000000000000000000000000000000000000000000000000000000000",
      "type": "0x2",
      "transactionHash": "0x899cc1e789bcad7684f02d6f0834e7698e582b20c3656a9eedfece14a4e56298",
      "transactionIndex": "0x10",
      "blockHash": "0x7823cede16a772c756f77fc97b35d10161fd2b0d2182ca74f48f9e5f1907b353",
      "blockNumber": "0x243d390",
      "gasUsed": "0x12e88b",
      "effectiveGasPrice": "0x5b8d80",
      "blobGasUsed": "0x6b9c1",
      "from": "0x2080d5bf878e0df355a8105d011518b4eba15717",
      "to": null,
      "contractAddress": "0xfd75975ef959b2cd91278deb03198e96118a0e00",
      "daFootprintGasScalar": "0x8b",
      "l1BaseFeeScalar": "0x44d",
      "l1BlobBaseFee": "0x1",
      "l1BlobBaseFeeScalar": "0xa118b",
      "l1Fee": "0xaca",
      "l1GasPrice": "0xc",
      "l1GasUsed": "0xc633"
    },
    {
      "status": "0x1",
      "cumulativeGasUsed": "0x5ab4b4",
      "logs": [
        {
          "address": "0xb4aca7874394b1dfa22b91ddced9f9085d5dbed0",
          "topics": [
            "0x59e4603a2e5db69164995990f0f0219768825a7a30c22c468c36cfc7f6dc3b77",
            "0x000000000000000000000000fd75975ef959b2cd91278deb03198e96118a0e00"
          ],
          "data": "0x0000000000000000000000000000000000000000000000000000000ba43b740000000000000000000000000000000000000000000000000000000000000001f40000000000000000000000000000000000000000000000000000000000000bb8000000000000000000000000000000000000000000000000000000000000003c00000000000000000000000000000000000000000000000000000000000000010000000000000000000000000000000000000000000000056bc75e2d6310000000000000000000000000000000000000000000000000000000000000000003e8",
          "blockHash": "0x7823cede16a772c756f77fc97b35d10161fd2b0d2182ca74f48f9e5f1907b353",
          "blockNumber": "0x243d390",
          "blockTimestamp": "0x699b0600",
          "transactionHash": "0xb09e7945db810392698ab47da16e89a6b9a35f1661a1fc2646c09837234d61c3",
          "transactionIndex": "0x11",
          "logIndex": "0x4",
          "removed": false
        }
      ],
      "logsBloom": "0x00000000000000000000000000000000000000000000000000000000000000004000000000000000000000000000000000000000000000000080000000000000000000000000000000000000000000000000008000000000000000000000000000000000100000000000000000000000000000000000000000000000000000000000000000000000000000000000000000000000000000000000100040000000000000000800000000020000000000000000000000000000000000000000000000000000000000000000000000000000000000000000000000000000002000000000000000000000000000000000000000000000000000000000000000000000",
      "type": "0x2",
      "transactionHash": "0xb09e7945db810392698ab47da16e89a6b9a35f1661a1fc2646c09837234d61c3",
      "transactionIndex": "0x11",
      "blockHash": "0x7823cede16a772c756f77fc97b35d10161fd2b0d2182ca74f48f9e5f1907b353",
      "blockNumber": "0x243d390",
      "gasUsed": "0x1cff0",
      "effectiveGasPrice": "0x5b8d80",
      "blobGasUsed": "0x48c2",
      "from": "0x2080d5bf878e0df355a8105d011518b4eba15717",
      "to": "0xb4aca7874394b1dfa22b91ddced9f9085d5dbed0",
      "contractAddress": null,
      "daFootprintGasScalar": "0x8b",
      "l1BaseFeeScalar": "0x44d",
      "l1BlobBaseFee": "0x1",
      "l1BlobBaseFeeScalar": "0xa118b",
      "l1Fee": "0x75",
      "l1GasPrice": "0xc",
      "l1GasUsed": "0x86c"
    },
    {
      "status": "0x1",
      "cumulativeGasUsed": "0x5b7360",
      "logs": [
        {
          "address": "0xb4aca7874394b1dfa22b91ddced9f9085d5dbed0",
          "topics": [
            "0xa534a2fbaf3eaba73d25d8ee4ad806f2c5a17126a0e4e4fb82074512c9b4b286",
            "0x000000000000000000000000fd75975ef959b2cd91278deb03198e96118a0e00",
            "0x000000000000000000000000164261128d96b4e3bb12d33f7ca2ee4ac77e1cbb"
          ],
          "data": "0x0000000000000000000000000000000000000000000000000000000000000001",
          "blockHash": "0x0000000000000000000000000000000000000000000000000000000000000000",
          "blockNumber": "0x243d390",
          "blockTimestamp": "0x699b0600",
          "transactionHash": "0xad94d471652246d9d618d49745e46a0cecd2e70827a2137e9f06d8ad55cd5cbc",
          "transactionIndex": "0x12",
          "logIndex": "0x5",
          "removed": false
        }
      ],
      "logsBloom": "0x00000000000000000000000000000000000000000000000000000000000000004000000000000000000000000000000000000000000000000000000000000000040000000000000000000000000000000000008200000000000000800000000001000000000000000000000000000000000000000000008000000000000000000000000000000000000000000000000000000000000000000000100040000000000000000800000000000000000000000000000000000000000000000000000000000000000000000000000000000000000000000000000000000000002000000000000400000000000000000000000000000000000000000000000000000000",
      "type": "0x2",
      "transactionHash": "0xad94d471652246d9d618d49745e46a0cecd2e70827a2137e9f06d8ad55cd5cbc",
      "transactionIndex": "0x12",
      "blockHash": "0x0000000000000000000000000000000000000000000000000000000000000000",
      "blockNumber": "0x243d390",
      "gasUsed": "0xbeac",
      "effectiveGasPrice": "0x5b8d80",
      "blobGasUsed": "0x3903",
      "from": "0x2080d5bf878e0df355a8105d011518b4eba15717",
      "to": "0xb4aca7874394b1dfa22b91ddced9f9085d5dbed0",
      "contractAddress": null,
      "daFootprintGasScalar": "0x8b",
      "l1BaseFeeScalar": "0x44d",
      "l1BlobBaseFee": "0x1",
      "l1BlobBaseFeeScalar": "0xa118b",
      "l1Fee": "0xaca",
      "l1GasPrice": "0xc",
      "l1GasUsed": "0x697"
    },
    {
      "status": "0x1",
      "cumulativeGasUsed": "0x5c320c",
      "logs": [
        {
          "address": "0xb4aca7874394b1dfa22b91ddced9f9085d5dbed0",
          "topics": [
            "0xa534a2fbaf3eaba73d25d8ee4ad806f2c5a17126a0e4e4fb82074512c9b4b286",
            "0x000000000000000000000000fd75975ef959b2cd91278deb03198e96118a0e00",
            "0x000000000000000000000000d34cbc03a93786be948f9dd0639cf0ffacd28341"
          ],
          "data": "0x0000000000000000000000000000000000000000000000000000000000000001",
          "blockHash": "0x0000000000000000000000000000000000000000000000000000000000000000",
          "blockNumber": "0x243d390",
          "blockTimestamp": "0x699b0600",
          "transactionHash": "0xdfe69aaaf9d472d880f5bafa90f83886bdd0eaebd60bd157a7ac5aec9b34c581",
          "transactionIndex": "0x13",
          "logIndex": "0x6",
          "removed": false
        }
      ],
      "logsBloom": "0x00000000000000000000000000000000000000000000000000000000000000004000000000000000000000000000000000000000000000000000000000000000040000000000000000000000000000000000008000000000000000800000000000000000000000000000080000000000000000002800008000000000000000000000000000000000000000000000000000000000000000000000100040000000000000000800000000000000000000000000000000000000000000000000000000000000000000000000000000000000000000000000000000000000002000000000000000000000000000000000000000000000000000000000000000000000",
      "type": "0x2",
      "transactionHash": "0xdfe69aaaf9d472d880f5bafa90f83886bdd0eaebd60bd157a7ac5aec9b34c581",
      "transactionIndex": "0x13",
      "blockHash": "0x0000000000000000000000000000000000000000000000000000000000000000",
      "blockNumber": "0x243d390",
      "gasUsed": "0xbeac",
      "effectiveGasPrice": "0x5b8d80",
      "blobGasUsed": "0x3903",
      "from": "0x2080d5bf878e0df355a8105d011518b4eba15717",
      "to": "0xb4aca7874394b1dfa22b91ddced9f9085d5dbed0",
      "contractAddress": null,
      "daFootprintGasScalar": "0x8b",
      "l1BaseFeeScalar": "0x44d",
      "l1BlobBaseFee": "0x1",
      "l1BlobBaseFeeScalar": "0xa118b",
      "l1Fee": "0xaca",
      "l1GasPrice": "0xc",
      "l1GasUsed": "0x697"
    },
    {
      "status": "0x1",
      "cumulativeGasUsed": "0x5cecde",
      "logs": [
        {
          "address": "0x281d1d6d04b23435a4d696e990d69e95da1e3208",
          "topics": [
            "0xff571df7d74779bb3bc4c418144ed2539441681cec39b558e6639f5faefc0695",
            "0x0000000000000000000000002080d5bf878e0df355a8105d011518b4eba15717"
          ],
          "data": "0x0000000000000000000000000000000000000000000000000000000000000001",
          "blockHash": "0x0000000000000000000000000000000000000000000000000000000000000000",
          "blockNumber": "0x243d390",
          "blockTimestamp": "0x699b0600",
          "transactionHash": "0x7647a2d94ffb7ab2a26145320e19adc8d3ec0572c69723a8854b7f7d85d23068",
          "transactionIndex": "0x14",
          "logIndex": "0x7",
          "removed": false
        }
      ],
      "logsBloom": "0x00000000000000000000000000000000000000000000000000000000000000000000000000000000000000000004000000000000200000000008000000000000000000000000000000000000000000000000000000000000000000000000000000000000000000000000000000000000000000000000080000000000000000000000000000000000000000000000000000000000000000200040000000000000000000000000000000000000000000000000000000000000000000000000000000000000000008000000000002000000000000000000000000000000000000000000000000000000000000000000000000000004000000000000000000000000",
      "type": "0x2",
      "transactionHash": "0x7647a2d94ffb7ab2a26145320e19adc8d3ec0572c69723a8854b7f7d85d23068",
      "transactionIndex": "0x14",
      "blockHash": "0x0000000000000000000000000000000000000000000000000000000000000000",
      "blockNumber": "0x243d390",
      "gasUsed": "0xbad2",
      "effectiveGasPrice": "0x5b8d80",
      "blobGasUsed": "0x364c",
      "from": "0x2080d5bf878e0df355a8105d011518b4eba15717",
      "to": "0x281d1d6d04b23435a4d696e990d69e95da1e3208",
      "contractAddress": null,
      "daFootprintGasScalar": "0x8b",
      "l1BaseFeeScalar": "0x44d",
      "l1BlobBaseFee": "0x1",
      "l1BlobBaseFeeScalar": "0xa118b",
      "l1Fee": "0xaca",
      "l1GasPrice": "0xc",
      "l1GasUsed": "0x640"
    },
    {
      "status": "0x1",
      "cumulativeGasUsed": "0x5da7bc",
      "logs": [
        {
          "address": "0x281d1d6d04b23435a4d696e990d69e95da1e3208",
          "topics": [
            "0xffd5334d9f2bb272aaebfc6c24a6d997a83e846355b47e58d36e882916a6e628",
            "0x000000000000000000000000f314a906d9463214f31af2be749f9cbb1d2c9242"
          ],
          "data": "0x0000000000000000000000000000000000000000000000000000000000000001",
          "blockHash": "0x0000000000000000000000000000000000000000000000000000000000000000",
          "blockNumber": "0x243d390",
          "blockTimestamp": "0x699b0600",
          "transactionHash": "0xb18cc67cbd9916989d55747fba2b8516cfa7b9a6df89615d1ec1e3dbde2c4348",
          "transactionIndex": "0x15",
          "logIndex": "0x8",
          "removed": false
        }
      ],
      "logsBloom": "0x00000002000000000000000000000000000000000000000000000000000000000000000000000000000000000000000000000000000000000000000000000000000000000000000000000000000000000000000000000000000000000000000000000000000000000000000000000000000000000000000000000000000000000000000000000000000010000000000000000000000000000040000000000000000000000000000000000000000000002000000000000000000000000000000080000000020008000000000002000000000000000000000000000000000000000000000000000000000000000000000000000004000000000000000000000000",
      "type": "0x2",
      "transactionHash": "0xb18cc67cbd9916989d55747fba2b8516cfa7b9a6df89615d1ec1e3dbde2c4348",
      "transactionIndex": "0x15",
      "blockHash": "0x0000000000000000000000000000000000000000000000000000000000000000",
      "blockNumber": "0x243d390",
      "gasUsed": "0xbade",
      "effectiveGasPrice": "0x5b8d80",
      "blobGasUsed": "0x364c",
      "from": "0x2080d5bf878e0df355a8105d011518b4eba15717",
      "to": "0x281d1d6d04b23435a4d696e990d69e95da1e3208",
      "contractAddress": null,
      "daFootprintGasScalar": "0x8b",
      "l1BaseFeeScalar": "0x44d",
      "l1BlobBaseFee": "0x1",
      "l1BlobBaseFeeScalar": "0xa118b",
      "l1Fee": "0xaca",
      "l1GasPrice": "0xc",
      "l1GasUsed": "0x640"
    },
    {
      "status": "0x1",
      "cumulativeGasUsed": "0x5eb25d",
      "logs": [
        {
          "address": "0x164261128d96b4e3bb12d33f7ca2ee4ac77e1cbb",
          "topics": [
            "0xddf252ad1be2c89b69c2b068fc378daa952ba7f163c4a11628f55a4df523b3ef",
            "0x0000000000000000000000000000000000000000000000000000000000000000",
            "0x0000000000000000000000002080d5bf878e0df355a8105d011518b4eba15717"
          ],
          "data": "0x000000000000000000000000000000000000000000000000000000e8d4a51000",
          "blockHash": "0x0000000000000000000000000000000000000000000000000000000000000000",
          "blockNumber": "0x243d390",
          "blockTimestamp": "0x699b0600",
          "transactionHash": "0x731d5987def20473262cbaae75c45f0a43e62cee5e7d9cb4d1741c3593939244",
          "transactionIndex": "0x16",
          "logIndex": "0x9",
          "removed": false
        }
      ],
      "logsBloom": "0x00000000000000000000000000000000000000000000000000000000000000000000000000000000000000000000000000800000200000000000000000000000000000000000000000000008000000000000000000000000000000000000000000000000020000000000000000000800010000000000000000000010000000000000000000000000001000000000000000000000000000200000000000000000000000000000000000000000000000000000000000000000000000000000000000000002000000000000000002000000000000000000000000000000000020000000000000000000000000000000000000000000000000000000000000000000",
      "type": "0x2",
      "transactionHash": "0x731d5987def20473262cbaae75c45f0a43e62cee5e7d9cb4d1741c3593939244",
      "transactionIndex": "0x16",
      "blockHash": "0x0000000000000000000000000000000000000000000000000000000000000000",
      "blockNumber": "0x243d390",
      "gasUsed": "0x10aa1",
      "effectiveGasPrice": "0x5b8d80",
      "blobGasUsed": "0x364c",
      "from": "0x2080d5bf878e0df355a8105d011518b4eba15717",
      "to": "0x164261128d96b4e3bb12d33f7ca2ee4ac77e1cbb",
      "contractAddress": null,
      "daFootprintGasScalar": "0x8b",
      "l1BaseFeeScalar": "0x44d",
      "l1BlobBaseFee": "0x1",
      "l1BlobBaseFeeScalar": "0xa118b",
      "l1Fee": "0xaca",
      "l1GasPrice": "0xc",
      "l1GasUsed": "0x640"
    },
    {
      "status": "0x1",
      "cumulativeGasUsed": "0x5fbd22",
      "logs": [
        {
          "address": "0xd34cbc03a93786be948f9dd0639cf0ffacd28341",
          "topics": [
            "0xddf252ad1be2c89b69c2b068fc378daa952ba7f163c4a11628f55a4df523b3ef",
            "0x0000000000000000000000000000000000000000000000000000000000000000",
            "0x0000000000000000000000002080d5bf878e0df355a8105d011518b4eba15717"
          ],
          "data": "0x0000000000000000000000000000000000000000000000056bc75e2d63100000",
          "blockHash": "0x0000000000000000000000000000000000000000000000000000000000000000",
          "blockNumber": "0x243d390",
          "blockTimestamp": "0x699b0600",
          "transactionHash": "0xf6234e8515ddc8f08a8e78fe48038a23a2d90da866881cb68d55c130437316b9",
          "transactionIndex": "0x17",
          "logIndex": "0xa",
          "removed": false
        }
      ],
      "logsBloom": "0x00000000000000000000000000000000000000000000000000000000000000000000100000000000000000000000000000000000200000000000000000000000000000000000000000000008000000000000000000000000000000000000000000000000020000000000000000000800000001000000000000000010000000000000000000000000000000000000000000000000000000600000000000000000000000000000000000000000000000000000000000000000000000000000000000000002000000000000000002000000000000000000000000000000000020000000000000000000000000000000000000000000000000000000000000000000",
      "type": "0x2",
      "transactionHash": "0xf6234e8515ddc8f08a8e78fe48038a23a2d90da866881cb68d55c130437316b9",
      "transactionIndex": "0x17",
      "blockHash": "0x0000000000000000000000000000000000000000000000000000000000000000",
      "blockNumber": "0x243d390",
      "gasUsed": "0x10ac5",
      "effectiveGasPrice": "0x5b8d80",
      "blobGasUsed": "0x364c",
      "from": "0x2080d5bf878e0df355a8105d011518b4eba15717",
      "to": "0xd34cbc03a93786be948f9dd0639cf0ffacd28341",
      "contractAddress": null,
      "daFootprintGasScalar": "0x8b",
      "l1BaseFeeScalar": "0x44d",
      "l1BlobBaseFee": "0x1",
      "l1BlobBaseFeeScalar": "0xa118b",
      "l1Fee": "0xaca",
      "l1GasPrice": "0xc",
      "l1GasUsed": "0x640"
    },
    {
      "status": "0x1",
      "cumulativeGasUsed": "0x60c7f3",
      "logs": [
        {
          "address": "0xc334d87ea6b2337364b77d5333bb8745d308ce22",
          "topics": [
            "0xddf252ad1be2c89b69c2b068fc378daa952ba7f163c4a11628f55a4df523b3ef",
            "0x0000000000000000000000000000000000000000000000000000000000000000",
            "0x0000000000000000000000002080d5bf878e0df355a8105d011518b4eba15717"
          ],
          "data": "0x00000000000000000000000000000000000000000000021e19e0c9bab2400000",
          "blockHash": "0x0000000000000000000000000000000000000000000000000000000000000000",
          "blockNumber": "0x243d390",
          "blockTimestamp": "0x699b0600",
          "transactionHash": "0x0d98d637e5085829d41dfd96f54fe29c61750f3012dbe4e5e2a8e788d38f8b90",
          "transactionIndex": "0x18",
          "logIndex": "0xb",
          "removed": false
        }
      ],
      "logsBloom": "0x00000000000000000000000000000000000000000000000000000000000000000000000000000000000000000000000000000000200000000000000200000000000000000000000000000008000000000000000000000000000000000000000000000000020000000000000000000800000000000000000000000010000000000000000000000000000000000000000000000000000000200000000000000000000800000000000000000000008000000000000000000000000000000000000000000002000000000000000002000000000000000000000000000000000020000000000000000000000000000000000000000000000000000000000000000000",
      "type": "0x2",
      "transactionHash": "0x0d98d637e5085829d41dfd96f54fe29c61750f3012dbe4e5e2a8e788d38f8b90",
      "transactionIndex": "0x18",
      "blockHash": "0x0000000000000000000000000000000000000000000000000000000000000000",
      "blockNumber": "0x243d390",
      "gasUsed": "0x10ad1",
      "effectiveGasPrice": "0x5b8d80",
      "blobGasUsed": "0x364c",
      "from": "0x2080d5bf878e0df355a8105d011518b4eba15717",
      "to": "0xc334d87ea6b2337364b77d5333bb8745d308ce22",
      "contractAddress": null,
      "daFootprintGasScalar": "0x8b",
      "l1BaseFeeScalar": "0x44d",
      "l1BlobBaseFee": "0x1",
      "l1BlobBaseFeeScalar": "0xa118b",
      "l1Fee": "0xaca",
      "l1GasPrice": "0xc",
      "l1GasUsed": "0x640"
    },
    {
      "status": "0x1",
      "cumulativeGasUsed": "0x618fec",
      "logs": [
        {
          "address": "0xd34cbc03a93786be948f9dd0639cf0ffacd28341",
          "topics": [
            "0xddf252ad1be2c89b69c2b068fc378daa952ba7f163c4a11628f55a4df523b3ef",
            "0x0000000000000000000000000000000000000000000000000000000000000000",
            "0x000000000000000000000000a56b712f59128896386221e73458127aee066b6b"
          ],
          "data": "0x00000000000000000000000000000000000000000000003635c9adc5dea00000",
          "blockHash": "0x0000000000000000000000000000000000000000000000000000000000000000",
          "blockNumber": "0x243d390",
          "blockTimestamp": "0x699b0600",
          "transactionHash": "0x8189797d27c409c935cefd33425bfc2699ff3a82835ba528a6acdf4335369c05",
          "transactionIndex": "0x19",
          "logIndex": "0xc",
          "removed": false
        }
      ],
      "logsBloom": "0x00100000000000000000000000000000000000000000000000000000000000000000100000000000000000000000000000000000000000000000000000000000000000000000000000000008000000000000000000000000000000000000000000000000020000000000000000001800000001000000000000000010000000000000000000000000000000000000000000000000000000400000000000000000000000000000000000000000000000000000000000000000000000000000000000000002000000000000000000000008000000000000000000000000000020000000000000000000000000000000000000000000000000000000000000000000",
      "type": "0x2",
      "transactionHash": "0x8189797d27c409c935cefd33425bfc2699ff3a82835ba528a6acdf4335369c05",
      "transactionIndex": "0x19",
      "blockHash": "0x0000000000000000000000000000000000000000000000000000000000000000",
      "blockNumber": "0x243d390",
      "gasUsed": "0xc7f9",
      "effectiveGasPrice": "0x5b8d80",
      "blobGasUsed": "0x364c",
      "from": "0x2080d5bf878e0df355a8105d011518b4eba15717",
      "to": "0xd34cbc03a93786be948f9dd0639cf0ffacd28341",
      "contractAddress": null,
      "daFootprintGasScalar": "0x8b",
      "l1BaseFeeScalar": "0x44d",
      "l1BlobBaseFee": "0x1",
      "l1BlobBaseFeeScalar": "0xa118b",
      "l1Fee": "0xaca",
      "l1GasPrice": "0xc",
      "l1GasUsed": "0x640"
    },
    {
      "status": "0x1",
      "cumulativeGasUsed": "0x6257cd",
      "logs": [
        {
          "address": "0x164261128d96b4e3bb12d33f7ca2ee4ac77e1cbb",
          "topics": [
            "0xddf252ad1be2c89b69c2b068fc378daa952ba7f163c4a11628f55a4df523b3ef",
            "0x0000000000000000000000000000000000000000000000000000000000000000",
            "0x000000000000000000000000a56b712f59128896386221e73458127aee066b6b"
          ],
          "data": "0x000000000000000000000000000000000000000000000000000002ba7def3000",
          "blockHash": "0x0000000000000000000000000000000000000000000000000000000000000000",
          "blockNumber": "0x243d390",
          "blockTimestamp": "0x699b0600",
          "transactionHash": "0xe88e84f466a90f90905a91055cbb37f012d11e54a83ff94b33f1549709dd7d4d",
          "transactionIndex": "0x1a",
          "logIndex": "0xd",
          "removed": false
        }
      ],
      "logsBloom": "0x00100000000000000000000000000000000000000000000000000000000000000000000000000000000000000000000000800000000000000000000000000000000000000000000000000008000000000000000000000000000000000000000000000000020000000000000000001800010000000000000000000010000000000000000000000000001000000000000000000000000000000000000000000000000000000000000000000000000000000000000000000000000000000000000000000002000000000000000000000008000000000000000000000000000020000000000000000000000000000000000000000000000000000000000000000000",
      "type": "0x2",
      "transactionHash": "0xe88e84f466a90f90905a91055cbb37f012d11e54a83ff94b33f1549709dd7d4d",
      "transactionIndex": "0x1a",
      "blockHash": "0x0000000000000000000000000000000000000000000000000000000000000000",
      "blockNumber": "0x243d390",
      "gasUsed": "0xc7e1",
      "effectiveGasPrice": "0x5b8d80",
      "blobGasUsed": "0x364c",
      "from": "0x2080d5bf878e0df355a8105d011518b4eba15717",
      "to": "0x164261128d96b4e3bb12d33f7ca2ee4ac77e1cbb",
      "contractAddress": null,
      "daFootprintGasScalar": "0x8b",
      "l1BaseFeeScalar": "0x44d",
      "l1BlobBaseFee": "0x1",
      "l1BlobBaseFeeScalar": "0xa118b",
      "l1Fee": "0xaca",
      "l1GasPrice": "0xc",
      "l1GasUsed": "0x640"
    },
    {
      "status": "0x1",
      "cumulativeGasUsed": "0x630c21",
      "logs": [
        {
          "address": "0xc334d87ea6b2337364b77d5333bb8745d308ce22",
          "topics": [
            "0x8c5be1e5ebec7d5bd14f71427d1e84f3dd0314c0f7b2291e5b200ac8c7c3b925",
            "0x0000000000000000000000002080d5bf878e0df355a8105d011518b4eba15717",
            "0x000000000000000000000000281d1d6d04b23435a4d696e990d69e95da1e3208"
          ],
          "data": "0x00000000000000000000000000000000000000000000003635c9adc5dea00000",
          "blockHash": "0x0000000000000000000000000000000000000000000000000000000000000000",
          "blockNumber": "0x243d390",
          "blockTimestamp": "0x699b0600",
          "transactionHash": "0x836c86116e70123fc44801047acac9d36395ddf35917ef40d2c7cdb63c55095f",
          "transactionIndex": "0x1b",
          "logIndex": "0xe",
          "removed": false
        }
      ],
      "logsBloom": "0x00000000001000000000000000000000000000000000000000008000000000000000000000000000000000000000000000000000200000000000000200200000000000000000000000000000000000000000000000000000000000000000000000000000000000000000000000000000000000000000000000000000000000000000000000000000000000000000000000000000000000200002000000000000020800000000000000000000008000000000000000000000000000000000000000000000000000000000000002000000000000000000000000000000000000000010000000000000000000000000000000000000000000000000000000000000",
      "type": "0x2",
      "transactionHash": "0x836c86116e70123fc44801047acac9d36395ddf35917ef40d2c7cdb63c55095f",
      "transactionIndex": "0x1b",
      "blockHash": "0x0000000000000000000000000000000000000000000000000000000000000000",
      "blockNumber": "0x243d390",
      "gasUsed": "0xb454",
      "effectiveGasPrice": "0x5b8d80",
      "blobGasUsed": "0x364c",
      "from": "0x2080d5bf878e0df355a8105d011518b4eba15717",
      "to": "0xc334d87ea6b2337364b77d5333bb8745d308ce22",
      "contractAddress": null,
      "daFootprintGasScalar": "0x8b",
      "l1BaseFeeScalar": "0x44d",
      "l1BlobBaseFee": "0x1",
      "l1BlobBaseFeeScalar": "0xa118b",
      "l1Fee": "0xaca",
      "l1GasPrice": "0xc",
      "l1GasUsed": "0x640"
    },
    {
      "status": "0x1",
      "cumulativeGasUsed": "0x64450b",
      "logs": [
        {
          "address": "0xc334d87ea6b2337364b77d5333bb8745d308ce22",
          "topics": [
            "0xddf252ad1be2c89b69c2b068fc378daa952ba7f163c4a11628f55a4df523b3ef",
            "0x0000000000000000000000002080d5bf878e0df355a8105d011518b4eba15717",
            "0x000000000000000000000000281d1d6d04b23435a4d696e990d69e95da1e3208"
          ],
          "data": "0x00000000000000000000000000000000000000000000003635c9adc5dea00000",
          "blockHash": "0x0000000000000000000000000000000000000000000000000000000000000000",
          "blockNumber": "0x243d390",
          "blockTimestamp": "0x699b0600",
          "transactionHash": "0x050108d4819e4b4972f8f4903485434a4c7720851cded2207f23044ce252757b",
          "transactionIndex": "0x1c",
          "logIndex": "0xf",
          "removed": false
        },
        {
          "address": "0x281d1d6d04b23435a4d696e990d69e95da1e3208",
          "topics": [
            "0x9e71bc8eea02a63969f509818f2dafb9254532904319f9dbda79b67bd34a5f3d",
            "0x0000000000000000000000002080d5bf878e0df355a8105d011518b4eba15717"
          ],
          "data": "0x00000000000000000000000000000000000000000000003635c9adc5dea00000",
          "blockHash": "0x0000000000000000000000000000000000000000000000000000000000000000",
          "blockNumber": "0x243d390",
          "blockTimestamp": "0x699b0600",
          "transactionHash": "0x050108d4819e4b4972f8f4903485434a4c7720851cded2207f23044ce252757b",
          "transactionIndex": "0x1c",
          "logIndex": "0x10",
          "removed": false
        }
      ],
      "logsBloom": "0x00000000001000000000000000000000000000000800000000008000000000000000000000000000000000000000000000000000200000000000000200000000000000000000000000000008000000000000000000000000000000000000000040000000000000000008000000000000000000000000000000000010000000000000000000000000000000000000000000000000000000200042000000000000000800000000000000000000008000000000000000000000000000000000000000000002000008000000000002000000000000000000000000000000000000000000000000000000000000000000000000000004000000000000000000000000",
      "type": "0x2",
      "transactionHash": "0x050108d4819e4b4972f8f4903485434a4c7720851cded2207f23044ce252757b",
      "transactionIndex": "0x1c",
      "blockHash": "0x0000000000000000000000000000000000000000000000000000000000000000",
      "blockNumber": "0x243d390",
      "gasUsed": "0x138ea",
      "effectiveGasPrice": "0x5b8d80",
      "blobGasUsed": "0x364c",
      "from": "0x2080d5bf878e0df355a8105d011518b4eba15717",
      "to": "0x281d1d6d04b23435a4d696e990d69e95da1e3208",
      "contractAddress": null,
      "daFootprintGasScalar": "0x8b",
      "l1BaseFeeScalar": "0x44d",
      "l1BlobBaseFee": "0x1",
      "l1BlobBaseFeeScalar": "0xa118b",
      "l1Fee": "0xaca",
      "l1GasPrice": "0xc",
      "l1GasUsed": "0x640"
    },
    {
      "status": "0x1",
      "cumulativeGasUsed": "0x64f92f",
      "logs": [
        {
          "address": "0x164261128d96b4e3bb12d33f7ca2ee4ac77e1cbb",
          "topics": [
            "0x8c5be1e5ebec7d5bd14f71427d1e84f3dd0314c0f7b2291e5b200ac8c7c3b925",
            "0x0000000000000000000000002080d5bf878e0df355a8105d011518b4eba15717",
            "0x000000000000000000000000fd75975ef959b2cd91278deb03198e96118a0e00"
          ],
          "data": "0x000000000000000000000000000000000000000000000000000000174876e800",
          "blockHash": "0x0000000000000000000000000000000000000000000000000000000000000000",
          "blockNumber": "0x243d390",
          "blockTimestamp": "0x699b0600",
          "transactionHash": "0x36c6c0d393fb7aeba6ecebe3961e0fac200ecb65205b6b531f30b724e1f8965c",
          "transactionIndex": "0x1d",
          "logIndex": "0x11",
          "removed": false
        }
      ],
      "logsBloom": "0x00000000000000000000000000000000000000000000000000000000000000004000000000000000000000000000000000800000200000000000000000200000000000000000000000000000000000000000008000000000000000000000000000000000000000000000000000000000010000000000000000000000000000000000000000000000001000000000000000000000000000200000100000000000020000000000000000000000000000000000000000000000000000000000000000000000000000000000000002000000000000000000000000000000000000000010000000000000000000000000000000000000000000000000000000000000",
      "type": "0x2",
      "transactionHash": "0x36c6c0d393fb7aeba6ecebe3961e0fac200ecb65205b6b531f30b724e1f8965c",
      "transactionIndex": "0x1d",
      "blockHash": "0x0000000000000000000000000000000000000000000000000000000000000000",
      "blockNumber": "0x243d390",
      "gasUsed": "0xb424",
      "effectiveGasPrice": "0x5b8d80",
      "blobGasUsed": "0x364c",
      "from": "0x2080d5bf878e0df355a8105d011518b4eba15717",
      "to": "0x164261128d96b4e3bb12d33f7ca2ee4ac77e1cbb",
      "contractAddress": null,
      "daFootprintGasScalar": "0x8b",
      "l1BaseFeeScalar": "0x44d",
      "l1BlobBaseFee": "0x1",
      "l1BlobBaseFeeScalar": "0xa118b",
      "l1Fee": "0xaca",
      "l1GasPrice": "0xc",
      "l1GasUsed": "0x640"
    },
    {
      "status": "0x1",
      "cumulativeGasUsed": "0x6692da",
      "logs": [
        {
          "address": "0x164261128d96b4e3bb12d33f7ca2ee4ac77e1cbb",
          "topics": [
            "0xddf252ad1be2c89b69c2b068fc378daa952ba7f163c4a11628f55a4df523b3ef",
            "0x0000000000000000000000002080d5bf878e0df355a8105d011518b4eba15717",
            "0x000000000000000000000000fd75975ef959b2cd91278deb03198e96118a0e00"
          ],
          "data": "0x000000000000000000000000000000000000000000000000000000174876e800",
          "blockHash": "0x0000000000000000000000000000000000000000000000000000000000000000",
          "blockNumber": "0x243d390",
          "blockTimestamp": "0x699b0600",
          "transactionHash": "0xaa77b443377276a5f7115ecf06f9d5c342af4b556d26528d1adadedd3cd5ecef",
          "transactionIndex": "0x1e",
          "logIndex": "0x12",
          "removed": false
        },
        {
          "address": "0xfd75975ef959b2cd91278deb03198e96118a0e00",
          "topics": [
            "0xddf252ad1be2c89b69c2b068fc378daa952ba7f163c4a11628f55a4df523b3ef",
            "0x0000000000000000000000000000000000000000000000000000000000000000",
            "0x0000000000000000000000002080d5bf878e0df355a8105d011518b4eba15717"
          ],
          "data": "0x000000000000000000000000000000000000000000000000000000174876e800",
          "blockHash": "0x0000000000000000000000000000000000000000000000000000000000000000",
          "blockNumber": "0x243d390",
          "blockTimestamp": "0x699b0600",
          "transactionHash": "0xaa77b443377276a5f7115ecf06f9d5c342af4b556d26528d1adadedd3cd5ecef",
          "transactionIndex": "0x1e",
          "logIndex": "0x13",
          "removed": false
        },
        {
          "address": "0xfd75975ef959b2cd91278deb03198e96118a0e00",
          "topics": [
            "0xf5681f9d0db1b911ac18ee83d515a1cf1051853a9eae418316a2fdf7dea427c5",
            "0x0000000000000000000000002080d5bf878e0df355a8105d011518b4eba15717",
            "0x000000000000000000000000164261128d96b4e3bb12d33f7ca2ee4ac77e1cbb"
          ],
          "data": "0x000000000000000000000000000000000000000000000000000000174876e800000000000000000000000000000000000000000000000000000000174876e800",
          "blockHash": "0x0000000000000000000000000000000000000000000000000000000000000000",
          "blockNumber": "0x243d390",
          "blockTimestamp": "0x699b0600",
          "transactionHash": "0xaa77b443377276a5f7115ecf06f9d5c342af4b556d26528d1adadedd3cd5ecef",
          "transactionIndex": "0x1e",
          "logIndex": "0x14",
          "removed": false
        }
      ],
      "logsBloom": "0x00000000000000000000000000000400000000000000000000000000000000004000000000000000000000000000000000800000200000000000000000000000000000800000000000000008000000000000008200000000000000000000000001000000020000000008000000000800010000000000100000000010000000000000000000000000001000000000000000000000000000200000100000000000000000000000000000000000000000000000000000000000800000000000000000000002000000000000000002000010000000000000000000000000000020000000000400000000000000000000000000000000000000000000000000000000",
      "type": "0x2",
      "transactionHash": "0xaa77b443377276a5f7115ecf06f9d5c342af4b556d26528d1adadedd3cd5ecef",
      "transactionIndex": "0x1e",
      "blockHash": "0x0000000000000000000000000000000000000000000000000000000000000000",
      "blockNumber": "0x243d390",
      "gasUsed": "0x199ab",
      "effectiveGasPrice": "0x5b8d80",
      "blobGasUsed": "0x364c",
      "from": "0x2080d5bf878e0df355a8105d011518b4eba15717",
      "to": "0xfd75975ef959b2cd91278deb03198e96118a0e00",
      "contractAddress": null,
      "daFootprintGasScalar": "0x8b",
      "l1BaseFeeScalar": "0x44d",
      "l1BlobBaseFee": "0x1",
      "l1BlobBaseFeeScalar": "0xa118b",
      "l1Fee": "0xaca",
      "l1GasPrice": "0xc",
      "l1GasUsed": "0x640"
    }
  ],
  "libraries": [],
  "pending": [],
  "returns": {},
  "timestamp": 1771767296433,
  "chain": 84532,
  "commit": "c912fe0"
}